:020000040800F2
:100000001007002001010008A7170008B90E00081A
:10001000A5170008FD020008611900080000000093
:10002000000000000000000000000000A917000808
:10003000FF020008000000008D010008AD17000855
:100040001B0100081B0100081B0100081B01000820
:100050001B0100081B0100081B0100081B01000810
:100060001B0100081B0100081B0100081B01000800
:100070001B0100081B0100081B0100081B010008F0
:100080001B0100081B0100081B0100081B010008E0
:100090001B0100081B0100081B0100081B010008D0
:1000A0001B0100081B0100081B0100081B010008C0
:1000B0001B0100081B010008311800081B01000883
:1000C0001B0100081B0100081B0100081B010008A0
:1000D0001B0100081B0100081B0100081B01000890
:1000E0001B0100081B0100081B010008DFF80CD0F1
:1000F00000F0F2F800480047391E00081007002001
:100100000648804706480047FEE7FEE7FEE7FEE7B1
:10011000FEE7FEE7FEE7FEE7FEE7FEE72F18000832
:10012000ED00000872B62C482C49026841EA020131
:1001300001602B484FF0010101602A4841680160CD
:1001400001688A884FF0100342EA03028A80D1F8DE
:1001500000C00CF1240CBCE8FF008CF309884FF0C0
:10016000020C8CF31488AE4662B63047EFF3108071
:1001700072B67047EFF3108062B6704780F3108854
:10018000704719484FF0805101607047EFF3108CB1
:1001900072B6164A126822B12DE900509047BDE8A8
:1001A0000050EFF3098020E9F01F0E4D4FF01008CA
:1001B0002E683060B78827EA0807B780686828602B
:1001C000878847EA080787800168B1E8F01F81F354
:1001D00009888CF31088704720ED00E00000FFFFD5
:1001E0005C0000206000002004ED00E044000020DE
:1001F0002DE9F05F0546002092469B46884606465C
:10020000814640241BE0284641464746224600F0EE
:1002100020F853465A46C01A914110D31146184649
:10022000224600F04AF82D1A67EB01084F46224695
:100230000120002100F041F817EB00094E41201E7B
:10024000A4F10104DFDC484631462A464346BDE8B6
:10025000F09F202A04DB203A21FA02F000217047A7
:1002600021FA02F3D040C2F120029140084319461E
:10027000704740EA01039B0703D009E008C9121F39
:1002800008C0042AFAD203E011F8013B00F8013B50
:10029000521EF9D27047D2B201E000F8012B491E7C
:1002A000FBD270470022F6E710B513460A46044613
:1002B0001946FFF7F0FF204610BD202A04DB203A44
:1002C00000FA02F1002070479140C2F1200320FAA9
:1002D00003F3194390407047064C074D06E0E06871
:1002E00040F0010394E8070098471034AC42F6D37D
:1002F000FFF700FF2C3300084C330008FEE770477F
:1003000072B6FEE72DE9F84FDFF8B891002409F145
:10031000040A0AF1040B23460F270BF1040EC9E06F
:100320000125A5402A40AA427DD1674ED1F804C0DC
:10033000ACEB0608B44532D014DCBCF1030F3AD064
:1003400009DCBCF1000F2AD0BCF1010F1CD0BCF1BC
:10035000020F31D11DE0BCF1110F17D0BCF1120F0B
:100360002AD119E0B8F5881F19D006DCB8F5803F0E
:1003700015D0B8F5801F1FD111E0B8F5001F0ED0C1
:10038000B8F5041F18D10AE0CB6815E0CB681B1D37
:1003900012E0CB6808330FE0CB680C330CE08B68BD
:1003A0002BB1012B4FF0080303D0456104E0042377
:1003B00002E0056100E00023FF2A01D8064601E0C3
:1003C00000F104064FEA840501D9A5F12005D6F80D
:1003D000008007FA05FC28EA0C0803FA05F548EA4C
:1003E0000508C6F800804D68ED0062D5374DAE694E
:1003F00046F00106AE61AD6924F0030605F0010583
:100400000095334D06EB050CDCF80850A607360FB7
:1004100007FA06F825EA0805DFF8B880404503D159
:100420004FF0000817E044E0DFF8AC80404502D10F
:100430004FF001080FE0DFF8A480404502D14FF0F3
:10044000020808E0DFF89880404502D14FF0030829
:1004500001E04FF0040808FA06F848EA0508CCF86D
:1004600008804D68D9F80060ED034D4601D516436C
:1004700000E096432E604D68DAF80060AD03554603
:1004800001D5164300E096432E604D68DBF800600E
:10049000ED025D4601D5164300E096432E604D689F
:1004A000DEF80060AD02754601D5164300E09643C4
:1004B0002E60641C0D682A46E5407FF431AFBDE82C
:1004C000F88F0000000401400000111000100240ED
:1004D0000000014000080140000C014000100140F4
:1004E00000140140C26821EA02030A4043EA0241C3
:1004F000016170470AB1016170470904FBE7000020
:1005000001488068704700000800002002488168A8
:10051000027811448160704708000020074810B538
:10052000016841F010010160032000F08FF8002005
:1005300000F006F800F03EF8002010BD0020024058
:1005400000B5014687B000221E2000F05FF81E2093
:1005500000F04EF81348C16941F00401C161C0695F
:1005600005A900F004000690684600F017F900F0B5
:1005700035F90D494000B0FBF1F10D480B4A491E19
:100580000260416040F2E7320021C0E9032181604E
:1005900000F00CFB10B1012007B000BD044800F0D2
:1005A00033FBF9E70010024040420F000008004012
:1005B000300100200C4808B5816941F001018161DA
:1005C000816901F001010091C16941F08051C1616F
:1005D000C06900F0805000900448416821F0E0615B
:1005E00041F00071416008BD001002400000014070
:1005F000002809DB00F01F02012191404009800022
:1006000000F1E020C0F8001170470000F0B40E4B7C
:100610001B680C46C3F30223C3F10705042D00D960
:100620000425191D072901D2002300E0DB1E012645
:1006300006FA05F1491E214099409E40761E16405B
:100640003143F0BC01F09EB90CED00E0064900F02A
:10065000070208684FF6FF03184040EA0220034AE9
:1006600010430860704700000CED00E00000FA0540
:100670002DE9F0470F46050061D0434E306800F089
:100680000700B84209D2306820F0070038433060D4
:10069000306800F00700B84251D128683B4C810710
:1006A00012D5400703D5606840F4E06060602878A8
:1006B000000703D5606840F4605060606068A96816
:1006C00020F0F000084360602878C00728D06868F0
:1006D000012810D02168022810D0890700292EDABD
:1006E000616821F0030101436160FFF709FF804663
:1006F00041F288390DE021688903EFE78901EDE7D0
:10070000FFF7FEFEA0EB0801494502D90320BDE832
:10071000F0876068696800F00C00B0EB810FEFD1E2
:10072000306800F00700B8420BD9306820F00700AD
:1007300038433060306800F00700B84201D0012033
:10074000E5E72878400705D56068E96820F4E060AF
:10075000084360602878000706D56068296920F49E
:10076000605040EAC100606000F058F86168084AD3
:10077000C1F30311515CC84006490860064800688F
:10078000FFF7DEFE0020C2E700200240001002401A
:10079000FC320008140000200C0000200F22026030
:1007A0000C4A536803F003034360536803F0F003FB
:1007B0008360536803F4E063C36052684FF4E063FE
:1007C00003EAD20202610448006800F007000860F2
:1007D0007047000000100240002002400448054914
:1007E00000684968044AC1F30221515CC84070475F
:1007F00014000020001002400C3300080448054992
:1008000000684968044AC1F3C221515CC84070477E
:1008100014000020001002400C33000812A185B023
:100820000FC98DE80F0014A0144A006804905168A5
:10083000134801F00C03042B10D0082B0ED1C1F388
:100840008343C9031DF803000AD5516804AAC1F304
:100850004041515C0A4A5043B0FBF1F005B070478B
:1008600008494843FAE7000002030405060708099F
:100870000A0B0C0D0E0F10100102000000100240B8
:1008800000127A0000093D002DE9F84F040070D0F5
:100890002078C04DC00749D06868C0F381000128A6
:1008A00007D06868C0F38100022809D16868C003D6
:1008B00006D52868800339D560680028E7D035E080
:1008C0006068B0F5803F0BD010B1B0F5A02F11D00B
:1008D000286820F480302860286820F4802002E016
:1008E000286840F480302860606890B1FFF708FE07
:1008F00006460AE0286840F480202860F0E700BF40
:10090000FFF7FEFD801B642873D828688003F7D5A5
:100910000CE0FFF7F5FD064605E000BFFFF7F0FD30
:10092000801B6428F0D828688003F7D420789A4E7A
:1009300080074FF001094FF0000839D5686810F0C2
:100940000C0F07D06868C0F38100022809D16868DD
:10095000C00306D42868800714D52069012808D16F
:1009600010E02069B0B1C6F80090FFF7C9FD074656
:1009700005E00AE1FFF7C4FDC01B0228C4D82868BF
:100980008007F7D52868616920F0F80040EAC100C7
:1009900028600DE0C6F80080FFF7B2FD074604E0CE
:1009A000FFF7AEFDC01B022823D828688007F7D4C4
:1009B000207800072CD57948A169D9B1C0F80090FA
:1009C000FFF79EFD074604E0FFF79AFDC01B0228D3
:1009D0000FD8686A8007F7D571484FF4FA5100685C
:1009E000B0FBF1F0009000BF0098411E0091FAD2D8
:1009F0000EE080E0C0F80080FFF782FD074604E0CB
:100A0000FFF77EFDC01B022875D8686A8007F7D4FF
:100A10002078400760D5E8690027C00008D4E8695D
:100A200040F08050E861E869012700F080500090B4
:100A30005C480168C90513D40168834641F480719C
:100A40000160FFF75DFD824606E000BFFFF758FD3D
:100A5000A0EB0A0064284ED8DBF80000C005F5D5ED
:100A6000E06801280AD008B1052813D0286A20F0D0
:100A700001002862286A20F0040002E0286A40F0A1
:100A800001002862E06841F2883B98B1FFF738FD29
:100A900082460BE0286A40F004002862EEE700BFBF
:100AA000FFF72EFDA0EB0A0159455AD8286A8007A6
:100AB000F6D50CE0FFF724FD824605E0FFF720FDA8
:100AC000A0EB0A0159454CD8286A8007F6D41FB11B
:100AD000E86920F08050E861E06988B36968C1F393
:100AE0008101022944D00228C6F8608004D0FFF7B3
:100AF00007FD044638E034E0FFF702FD074604E056
:100B0000FFF7FEFCC01B02282BD828688001F7D411
:100B1000206AB0F5803F05D16868A16820F40030F4
:100B200008436860D4E908010843696821F4741136
:100B300008436860C6F86090FFF7E2FC044606E0F0
:100B400025E000BFFFF7DCFC001B022809D828685D
:100B50008001F7D51BE000BFFFF7D2FC001B022885
:100B600002D90320BDE8F88F28688001F4D40EE094
:100B70000128F7D06868226A00F48031914204D1DC
:100B8000616A00F47010884201D00120EAE7002079
:100B9000E8E70000001002400000424280044242A8
:100BA00014000020007000407047704710B504002A
:100BB00003D094F83D0010B107E0012010BD0020E3
:100BC00084F83C00204600F01EF8022084F83D0026
:100BD000211D206800F032FE012084F8460084F8D0
:100BE0003E0084F83F0084F8400084F8410084F817
:100BF000420084F8430084F8440084F8450084F8F7
:100C00003D00002010BD704790F83D10012901D033
:100C100001207047022180F83D100168CA6842F047
:100C20000102CA6000680B49884208D0B0F1804FC9
:100C300005D00949884202D00849884204D1816818
:100C400001F00701062903D0016841F001010160AC
:100C500000207047002C01400004004000080040C4
:100C6000704770B50446006801694FF00005C9433C
:100C7000890715D4C168C943890711D4E91E0161E8
:100C800001202077206880698007204602D0FFF786
:100C9000E7FF04E000F098F8204600F096F825778A
:100CA00020680169C943490717D4C168C943490786
:100CB00013D46FF00401016102202077206880695D
:100CC00010F4407F204602D0FFF7CAFF04E000F096
:100CD0007BF8204600F079F8257720680169C94340
:100CE000090716D4C168C943090712D46FF0080177
:100CF0000161042020772068C0698007204602D067
:100D0000FFF7AEFF04E000F05FF8204600F05DF86A
:100D1000257720680169C943C90617D4C168C9434A
:100D2000C90613D46FF010010161082020772068F4
:100D3000C06910F4407F204602D0FFF791FF04E025
:100D400000F042F8204600F040F82577206801695D
:100D5000C943C90708D1C168C943C90704D1891E5D
:100D60000161204600F032F820680169C943090694
:100D700009D4C168C943090605D46FF08001016137
:100D80002046FFF711FF20680169C943490609D4CD
:100D9000C168C943490605D46FF04001016120468E
:100DA00000F01EF820680169C94389060BD4C168A8
:100DB000C943890607D46FF0200101612046BDE8D0
:100DC0007040FFF7F2BE70BD70477047006803497E
:100DD000884201D1FFF79ABB70470000000800402D
:100DE000704770B5040004D094F83D00002510B1A0
:100DF00006E0012070BD84F83C50204600F022F847
:100E0000242084F83D002068C16821F40051C160AD
:100E1000204600F049FD2068016921F490410161FC
:100E20002068416921F02A0141612068C16841F4CC
:100E30000051C1602564202084F83D0084F83E0004
:100E4000002070BD30B585B0002400940194029458
:100E5000039400681549884225D11548816941F4F9
:100E600080418161816901F480410491816941F08F
:100E70000401816180690F4D00F0040004904FF47B
:100E800000700090022001900320039069462846DC
:100E9000FFF738FA2815CDE90004012002906946D1
:100EA0002846FFF72FFA05B030BD0000003801409A
:100EB0000010024000080140FEE70000064D4FF41C
:100EC00080744FF4967621462846FFF70BFB304698
:100ED00001F03AF8F7E7000000080140054C4FF434
:100EE0007A7504212046FFF7FDFA284601F02CF818
:100EF000F7E70000001401404218491E521E8242CA
:100F000002D922EA010070478843704710B5204992
:100F10001020086020491F48086001F0EFF9040024
:100F200007D01EA000F01EFD21461EA000F01AFDF5
:100F300025E001F005FF040004D018A000F012FD28
:100F40001FA01AE001F066FF01F0FCFB002817D19A
:100F500001F0DEF9002813D101F0DCFA040004D01E
:100F60000EA000F0FFFC1BA007E001F0F9FC04005C
:100F700007D00AA000F0F6FC1BA000F0F3FC20460E
:100F800010BD02F04FF9BDE8104001F063B9000058
:100F90005000002010070020E40000205B45525262
:100FA0005D2000006F734D656D53797374656D49F5
:100FB0006E6974206572726F722025640A000000E9
:100FC0006F735461736B496E6974206572726F72CE
:100FD0000A0000006F735175657565496E6974206C
:100FE0006572726F720A00006F735377546D7249A5
:100FF0006E6974206572726F720A00004268C1E9FE
:10100000000242681160416070474268C1E9000215
:1010100042681160416070474268C1E9000242685D
:101020001160416070474268C1E900024268116086
:1010300041607047D0E900121160D0E900124A60A7
:1010400000214160016070470068FFF7D7BF70B5AD
:1010500005000C464FF000000CD0002C0AD02846AA
:1010600001F0F3FB002805D121462846BDE8704079
:1010700000F072BF70BD00F0FFBF70B50C460500F8
:101080000AD04CB101F012FC012807D021462846B5
:1010900001F010F8012801D0012070BD002070BDC2
:1010A0002DE9F84FDFF898A00F460500DAF8004068
:1010B000A04603D0502F01D9A80702D00120BDE8D7
:1010C000F88FFFF753F88146EE1918E0A068A542A3
:1010D000204401D8A64203D885420ED286420CD3C2
:1010E00018A000F03FFCA068324620440090234640
:1010F000294616A000F036FC1BE0A046E468002C50
:10110000E4D13946284601F057F890B1B7F5805F31
:1011100003D3284601F0FAFB58B1DAF8001061B1A8
:10112000C8F80C500020E8604846FFF727F8002078
:10113000C5E74846FFF722F8C0E7CAF80050F1E7D4
:10114000E00000205B4552525D200000706F6F6C24
:10115000205B25702C20307825782920636F6E66FF
:101160006C696374207769746820706F6F6C205BA2
:1011700025702C2030782578290A00002DE9F047C9
:101180000D4608985FEA020900F104018FB206D00B
:101190004FF6FB71884205D92648BDE8F0872548FF
:1011A0000930FAE7E5B1D8B1DFF88C8005FB07F12B
:1011B000D8F80000FFF74BFF060014D0FEF7D6FF6B
:1011C0001E4A01465068904210D10846FEF7D6FFED
:1011D0003146D8F80000FFF750FF1648401CDCE706
:1011E00014480A30D9E71348401ED6E7D0E9002357
:1011F000A0F11C041A60D0E900235360E580278128
:10120000012326600022A38022826582A281E281DE
:10121000A0F1080252601260406000600830406037
:1012200000600846FEF7AAFF61890020C9F8001097
:10123000B3E7000003060002E4000020BC00002029
:10124000F8B51C4615460E46074601F045FA00283B
:1012500006D100212B4632463846009401F088F929
:10126000F8BD7FB582B01C460D46064604AA01F0C3
:101270004DFA002806D1032104AB2A4630460094DB
:1012800001F076F906B070BD10B5FEF76FFF0446A9
:1012900001F0CAF80A49283848600968814202D03A
:1012A0000848008820B12046BDE81040FEF766BF20
:1012B0002046FEF763FFBDE81040FEF762BF000066
:1012C000600000204000002010B501F03DFF040048
:1012D00006D005A000F046FB05A000F043FB01E0AE
:1012E000FEF720FF204610BD5B4552525D200000F6
:1012F0006F735469636B5374617274206572726F9B
:10130000720A000070B5044600F034F8002829D1B4
:10131000174D2068C0EBC000E96800EB400001EB0E
:101320008004FEF723FF0646A08820F0020040F06C
:101330000400A080E18804F1280001F031F801F0F8
:1013400073F805F1200128384860EA695AB12A8803
:101350004AB90968814206D03046FEF70FFF01F016
:10136000EFF9002070BD3046FEF708FFF9E70000F6
:10137000400000202DE9F0470D465FEA00084FF0DD
:10138000FF3A16D0C5B12869C8B12968D1B1AA8879
:1013900046481F2A0BD802D1454A914207D14549F8
:1013A000454AE868511A88420FD940481D30BDE8C7
:1013B000F0873E48001DFAE73C48801EF7E73B48AF
:1013C000801CF4E73948401CF1E710B94FF4347041
:1013D000E8600821FFF790FDE860B0F5987F02D241
:1013E0003248C01CE3E7FEF7C1FE06464FF0000995
:1013F000324C10E0A1F128070846FFF71BFE2F48EA
:1014000007F128010838FFF7F9FD2A48F968FFF7C6
:1014100034FEC7F80C906168A142EBD12749083926
:101420004868884202D1214C0E3439E0A0F12804EA
:10143000FFF700FE3046FEF7A1FE276908221D488F
:10144000E968FFF718FE060020D002463846E96832
:1014500001F0F0FE2060A868E6602062E868C4F849
:101460001890C4F81C900221A060A180A988E18096
:101470002968C4F83CA0C4F8489061612969C4F89F
:10148000509061620020C8F8007090E7FEF76EFE91
:1014900006460A4804F128010838FFF7AFFD084C5A
:1014A0003046FEF76BFE204681E700000302000293
:1014B0005122000810070020005000207800002072
:1014C0000002000370B5054600F0E4FE08B11548BF
:1014D00070BD1548008808B1144870BDEDB1FEF725
:1014E00045FE114C064620342068283000F03CFFB1
:1014F0002068818821F0040181802946206801F05C
:10150000C5FB2068818841F0200181803046FEF7CC
:1015100035FEFFF7B9FE002070BDBDE8704000F059
:10152000A3B800000D020003400000200E020002DC
:101530002DE9F047494D07464FF0FF3A6869874269
:1015400002D14748BDE8F087A869874202D14448E4
:101550000D30F7E72869874202D341480D38F1E79B
:10156000FEF704FE8046C7EBC700E96800EB4000C9
:1015700001EB8004A688F00706D0394C40460A3CAF
:10158000FEF7FCFD2046DDE7F0064FF0000903D52D
:10159000288808B1A5F80090700708D504F1280044
:1015A00000F0E2FEA08820F00400A08007E042F2F4
:1015B0000800064203D004F12800FFF73BFD16F0B7
:1015C000600F02D0204601F0F7FDA08820F0020055
:1015D00040F00100A080C4F83CA0C4F8489000F09E
:1015E00023FF1E4E4FF0010A203628387060207904
:1015F000C0061FD504F1280106F11800FFF724FDED
:101600002869E968C0EBC00000EB400001EB8000F6
:10161000306007613168A08888803068E168C16007
:10162000616A4162A4F804A04046FEF7A7FD01F0FC
:1016300087F810E00948A4F804A004F1280130302C
:10164000FFF7DCFC0748E168FFF717FD4046C4F8E8
:101650000C90FEF793FD002074E70000400000208E
:10166000140200021007002070B5194CA4F12002EA
:10167000206812690169914201D3164870BD007952
:10168000400701D4002070BDFEF770FD05462068BC
:10169000C08800F0B7FE012813D920682830FFF772
:1016A000C9FC2068818841F0040181802068C188DC
:1016B000283000F075FE2846FEF760FDFFF7E4FDD8
:1016C000E0E72846FEF75AFD0248093070BD0000E9
:1016D00060000020070200020149D1E900017047C3
:1016E000980000202DE9F04186B000241C480094A9
:1016F000019402940394816941F020018161816920
:1017000001F020010491816941F004018161806947
:10171000012200F00400134F1502049029463846B8
:10172000FEF7E8FEDFF84080012204214046FEF784
:10173000E1FE0095032601250396CDE90154694693
:101740003846FEF7DFFD0420CDE90005CDE902466D
:1017500069464046FEF7D6FD06B0BDE8F0810000C0
:101760000010024000080140001401400C4810B570
:101770000A4901604FF4E1314160002181600C228F
:10178000C160C0E904128161C161FFF72AFB002832
:1017900003D0BDE81040FEF7B3BD10BD00380140D6
:1017A000EC000020FEE7FEE77047000006480068F6
:1017B00008B101F0B5BC0548D0E90012491C42F15E
:1017C0000002C0E900127047880000209800002045
:1017D00030B58FB028216846FEF764FD14210AA8B1
:1017E000FEF760FD01210804CDE9001000240294F9
:1017F00002250491CDE907504FF4E01009906846A6
:10180000FFF742F808B172B6FEE70F20CDE90A05EE
:101810004FF48060CDE90C4002210AA80E94FEF737
:1018200027FF002801D072B6FEE70FB030BD704729
:101830000148FFF716BA000030010020F0B5026839
:10184000164B174C174D4FF08047984205D0B842C1
:1018500003D0A04201D0A84203D122F070064A680A
:101860003243984205D0B84203D0A04201D0A842EA
:1018700003D122F44074CA6822434C6922F08002EA
:10188000224302608A68C2620A688262984201D179
:101890000969016301214161F0BD0000002C014094
:1018A000000400400008004070B50446006801696B
:1018B000E26821F44051114301612169A0680843A5
:1018C000616908432168CA6841F20C639A43024384
:1018D000CA6020684169A26921F4407111434161E5
:1018E0001E492068884202D1FEF788FF01E0FEF71A
:1018F00075FF00EBC00101EB0012606864218000FD
:10190000B2FBF0F3B3FBF1F36FF018067343B2FBD5
:10191000F0F5B2FBF0F605EB8305322303EB05157A
:10192000B5FBF1F5B6FBF1F605F0F00505EB061594
:10193000B2FBF0F6B2FBF0F0B0FBF1F06FF0180282
:10194000504306EB800003EB0010B0FBF1F0216880
:1019500000F00F002844886070BD0000003801408E
:10196000FEE700000FB4054B10B503A9044A029826
:1019700000F028F810BC5DF814FB0000271E0008DA
:10198000E80000200907090E002804DB00F1E02030
:1019900080F80014704700F00F0000F1E02080F89C
:1019A000141D704702E008C8121F08C1002AFAD1AE
:1019B00070477047002001E001C1121F002AFBD1CF
:1019C000704700002DE9FF4F8DB00F4605460026F9
:1019D00006E025280BD0DDE90F1290476D1C761C20
:1019E00028780028F5D111B03046BDE8F08F0024EA
:1019F000A246A1460122EC4900E0044315F8013F4C
:101A0000203B02FA03F00842F7D128782A2810D0A8
:101A10006FF02F022878A0F13001092914D80AEBC1
:101A20008A0102EB410144F0020400EB010A6D1C43
:101A3000F0E701CF5FEA000A03D544F40054CAF18D
:101A4000000A44F002046D1C28782E2817D115F8DE
:101A5000010F44F004042A280ED06FF02F022878DA
:101A6000A0F1300109290AD809EB890102EB4101F3
:101A700000EB01096D1CF2E757F8049B6D1C2878F8
:101A80006C280FD006DC4C2817D068280DD06A28A7
:101A900014D104E0742810D07A280FD10DE044F45A
:101AA00000140AE044F4801401E044F4401469781E
:101AB000814202D104F580146D1C6D1C2A786E2AB7
:101AC0001FD00CDC632A31D004DC002A8BD0582ACA
:101AD00011D1A3E0642A68D0692A0CD165E0732A89
:101AE0002ED004DC6F2A73D0702A04D19BE0752AB3
:101AF0006FD0782A6ED01046DDE90F129047761C21
:101B000050E1C4F30250022806D0032809D004286B
:101B100001CF09D0066045E101CFF117C0E90061AE
:101B200040E101CF06803DE106703BE117F8040B70
:101B30008DF8000000208DF80100EB46012003E045
:101B400057F804BB4FF0FF3061074FF0000102D49B
:101B50000DE008F10101884649450FDA8045F8DBC0
:101B60001BF808100029F4D108E008F101018846AB
:101B70008142FADB1BF808100029F6D1DDE90F23BA
:101B8000AAEB08008146214600F036F9304400EB0C
:101B9000080604E0DDE90F121BF8010B9047B8F1CD
:101BA0000108F7D221464846F7E00A21C4F3025360
:101BB0004FF0000B0891022B04D001CFC117032B6B
:101BC00009D00AE0FF1D27F00707F7E8020108E047
:101BD00032E01FE020E000B2C117042B01D140B277
:101BE000C117031E71F1000307DA4FF0000CD0EBB0
:101BF0000C006CEB01012D2302E0230504D52B23FF
:101C00008DF82430012303E0E30701D02023F7E718
:101C1000984658E00A2110E010210EE010204FF005
:101C2000000B08900CE010214FF0000B44F004046E
:101C30004FF00809089103E008214FF0000B0891CC
:101C4000C4F30253022B04D001CF0021032B06D092
:101C500006E0FF1D27F00707F7E8020103E080B266
:101C6000042B00D1C0B24FF0000823072BD5702AF7
:101C700007D0DDF820C08CF0100C5CEA0B0C05D00E
:101C80000EE040238DF82430012308E050EA0103E0
:101C900006D030238DF824308DF825200223984675
:101CA000DDF820C08CF0080C5CEA0B0C0BD150EA7C
:101CB000010301D1630706D530238DF824304FF09E
:101CC0000108A9F10109582A04D038A20B9208AAE8
:101CD0000A920BE03AA2F9E75B46089AFEF788FA07
:101CE0000B9B9B5C0A9A521E0A92137050EA0102E7
:101CF000F2D10A98ADEB000000F1200B600702D58D
:101D000024F4803401E04FF00109D94502DDA9EB4C
:101D10000B0000E0002000EB0B0141440890AAEB0F
:101D2000010AE00306D4DDE90F232146504600F006
:101D300063F806444FF0000908E009A911F809000A
:101D4000DDE90F12904709F10109761CC145F4DB6A
:101D5000E0030CD5DDE90F232146504600F04CF896
:101D6000064404E0DDE90F1230209047761C089904
:101D7000481E08900029F5DC08E00A980A990078C6
:101D8000491C0A91DDE90F129047761CBBF1000156
:101D9000ABF1010BF1DC21465046DDE90F2300F0E9
:101DA00019F806446D1C1BE6092801003031323356
:101DB0003435363738396162636465660000000087
:101DC0003031323334353637383941424344454671
:101DD000000000002DE9F041044600251E4617468C
:101DE000880404D405E039462020B0476D1C641EE9
:101DF000F9D52846BDE8F0812DE9F04104460025DB
:101E00001E469046C80301D5302700E020278804ED
:101E100004D505E041463846B0476D1C641EF9D52F
:101E20002846BDE8F08138B504468DF800006946C3
:101E30000320ABBE204638BDFEF770FBFFF7C8FCA1
:101E4000FFF750FCFFF792FC00F028FA084A002147
:101E5000084801F033F9084C054A0021206024327B
:101E6000064801F02BF9606000F030FAFEE7000050
:101E7000B4320008BD0E000800000020DD0E00088E
:101E800010B586B0044614216846FEF70BFA694681
:101E9000204600F0B9F906B010BD4A0900EB8202F5
:101EA0000068121D884206D901F01F030121106845
:101EB000994088431060704730B502C81F314B0904
:101EC00000210A4614E00468641C0FD00468E34350
:101ED00001E05B08491C002BFBD14B1E01259D40F6
:101EE0002C43046001EB4210401E30BD001D521C0B
:101EF0009A42E8D34FF0FF3030BD02688A4201D8E1
:101F0000002070474A0900EB820001F01F02406880
:101F1000012191400840F4D00120704770B505467A
:101F200001600C4601F11F00C108281DFEF7BAF937
:101F3000E00608D004F01F014FF0FF30884061092F
:101F400005EB8101486070BD10B5FFF7BBFA0028B2
:101F500001D04FF0FF3010BD2DE9F04100240D46B7
:101F60002746061E5ED0FEF701F98046ED1C25F0DF
:101F70000305706810E041684A000CD421F040412C
:101F8000A94208D324B1626822F040428A4202D9B1
:101F90000446A94221D000680028ECD1ECB3606867
:101FA00020F04040401B082817D9621952F80C0F46
:101FB00020F0804042F804096168491B083961F348
:101FC0001D00C2E900402146304600F012F928B356
:101FD0000260606865F31D00606054F8040F20F033
:101FE000004040F0804001C41448274681682944DD
:101FF00008318160C268914200D9C1600168491C02
:1020000001607068406820F04040B0F5806F02D2F7
:102010003046FFF735FF404601E005E00CE0FEF7F3
:10202000ADF83846BDE8F08105A0FFF79BFC2946D6
:1020300005A0FFF797FCE4E77260CAE7D000002034
:102040005B4552525D2000007468657265277320FD
:102050006E6F7420656E6F7567682077686F6C654A
:1020600020746F20616C6C6F632025782042797436
:102070006573210A0000000070B5144628B121B133
:10208000042C02D3651E2C4201D0002070BD2144D7
:10209000091FFFF761FF0028F8D00119491EA94365
:1020A0008842F3D0081A40F0004041F8040C08467A
:1020B00070BD00002DE9F04101260C46050018D046
:1020C000BCB154F8040C002802DA20F000400C1ACD
:1020D0002868A04203D868680830A0420BD22EA01E
:1020E000FFF740FC21462EA0FFF73CFC0020BDE896
:1020F000F0810120FBE7FEF739F8A4F1080207465A
:10210000506840000ED5286890420DD01168814279
:1021100008D368680830814204D8284600F069F87E
:10212000904201D0002631E05068224B20F08040E0
:1021300020F040415060986801F10804844204D8BE
:10214000401A0838986000E00246106868B141689B
:102150004900F9D509E054682144083161F31D04B0
:1021600054606968814200D16A601146284600F0D7
:1021700040F810B141684C00EDD51146284600F0FA
:1021800038F800B102605868401C58603846FDF7C6
:10219000F5FF3046ABE700005B4552525D20000082
:1021A00030782578206F7574206F662072616E67B5
:1021B00065210A00D000002070B50E4604460500D7
:1021C00001D0582E01D8002070BD2046FEF76AF8D5
:1021D00050342C60C5E901466068583E20F08040CC
:1021E000606000202060606866F31D006060012070
:1021F00070BD4068884201D100207047486820F0D7
:10220000404008440830704730B5002278B171B1C1
:10221000436807E05C68650003D524F0404422442D
:1022200008321B68002BF5D18368934201D201204C
:1022300030BD4A6080680860801A88600348026880
:10224000CA6040680861002030BD0000D000002056
:10225000FEE7000000B587B018216846FEF722F8B7
:10226000074800904FF4A060039006A004901F2040
:10227000ADF8040069460648FFF744F807B000BD12
:102280005122000849646C65436F7265303030003C
:1022900054000020EFF305807047000070B5FFF791
:1022A000F9FF10B16FF0050070BD074C4FF0FF351E
:1022B000206810B9FEF72AFE08B1284670BD01203B
:1022C0002060002070BD00001800002070B5FFF7EE
:1022D000E1FF10B16FF0050070BD074C4FF0FF3506
:1022E0002068012802D1FEF7EFFF08B1284670BD33
:1022F00002202060002070BD180000200248034921
:10230000091AFEF7CDBE0000100700200050002083
:102310002DE9F04111484FF4B4714060006010485D
:102320000068FEF794FE0D4D2D1F286098B1002423
:1023300026462F1D296804EB440001EBC0014C60C8
:1023400001F8086B3868FEF760FE641C0F2CF1D3AF
:102350000020BDE8F0810348FBE70000B00000204A
:10236000E4000020001D0002D0E900121160D0E955
:1023700000124A6000214160016030F8221C0748C9
:10238000426802EBC1025368934205D14FF000420C
:10239000CA40016891430160704700001C000020A2
:1023A0000A4B10B55A6802EBC1025468944205D139
:1023B0004FF00044CC4019680C431C6011684A6817
:1023C000C0E900124A681060486010BD1C0000207F
:1023D00010B50A4800244FF480710068FEF737FEFC
:1023E00007490028486007D0486800EBC400641C17
:1023F00040600060202CF7D310BD0000E4000020F6
:102400001C0000200749034600204A6802EBC30174
:1024100002EBC302496801E04968401C8A42FBD1D3
:10242000704700001C0000200548016831B1406879
:10243000B1FA81F100EBC10040687047002070479D
:102440001C0000202DE9F0411E460446134611F001
:1024500003004FF000050BD0012812D0032817D03D
:1024600022A0FFF77FFABDE8F04122A0FFF77ABA79
:10247000A089E788421CBA4201D1A58110E0A2815F
:102480000EE0A08900B9E088401EA08180B207E07C
:10249000E089E788421CBA4201D1E58100E0E2818F
:1024A0002289256800FB025548074FEAC17007D50D
:1024B00018B118682860BDE8F08128681860FAE74C
:1024C00050B1194628463268FDF7D3FE20892D1FEA
:1024D000284431680160EEE7281F1044294604684B
:1024E00018462246FDF7C5FE3460E4E75B455252CC
:1024F0005D200000696E76616C6964207175657598
:1025000065206F7065726174652074797065210A49
:102510000000000070B513484FF4DC7421460068D9
:10252000FEF795FD104D2860D0B12146FDF7BAFEAB
:10253000281D0024406000604FEA000604EB4400C0
:10254000296800EBC40001EB80014C811C3130682C
:10255000FEF762FD641CA4B20A2CEFD3002070BD0C
:10256000024870BDE4000020B8000020010600020F
:102570002DE9FF5F9A460F460446002501F001064B
:10258000DDF838B0FDF7F2FD4F49814604EB440019
:10259000096800EBC40001EB8004A08850B1F80783
:1025A0002089DAF80010A0F1040006D0814209D990
:1025B000464D83E0454D0B3D80E0814202D2434DC4
:1025C0000A357BE004EB4600018A91B1491E018285
:1025D000534639462046029AFFF734FF002E37D083
:1025E0004FF0000004EBC000816934D14FF00100CE
:1025F00032E0BBF1000F05D03548008850B1334DB3
:102600000F3D5BE0F80702D0304D6D1C56E02F4DBA
:10261000083553E02F485A464FF40051D0F8008057
:1026200004EBC600143000F003FD4846FDF7A6FD9C
:10263000FEF72AFEFDF79AFD8146B8F80400410630
:10264000C6D5224D20F04001A8F804100E3D35E01B
:102650004FF00100C6E7002004EBC00014308142B7
:1026600015D096B15FF0000004EBC0004FF40051AC
:102670008069283800F002FD4846FDF77FFDFEF72F
:1026800003FE002004B0BDE8F09F0120ECE7002E1F
:102690000CD000BF4FF0000004EB4000008A00F1B6
:1026A000010080B205D14FF0010104E04FF00100BC
:1026B000F2E74FF0000104EB410108824846FDF7C4
:1026C0005DFD2846DEE70000B80000201506000288
:1026D000400000206000002010B50A2801D30A48FD
:1026E00010BD49B142B1106848B15BB1FFF7D2FDEE
:1026F00040B105480A3010BD0348401C10BD0248D7
:10270000801C10BD002010BD0E06000210B50A2866
:1027100001D30A4810BD41B1106848B15BB1FFF761
:10272000B9FD40B10548401F10BD0448001D10BD53
:102730000248401D10BD002010BD00000E06000222
:10274000FDF71FBD2DE9F04110484FF4A071406026
:1027500000600F480068FEF77AFC0C4D2D1F2860C2
:1027600090B1002426462F1D286800EB0411CC8070
:1027700021F8086B3868FEF756FC641CA4B2142CD0
:10278000F2D30020BDE8F0810248FBE7C80000203A
:10279000E40000200007000210B504468068FFF73F
:1027A0008BFB002801DA002010BDD4E9001201FBE8
:1027B000002010BD10B503464068081A1968B0FB28
:1027C000F1F4B0FBF1F201FB120068B998680168FE
:1027D000A14209D92146FFF790FB28B1214698680C
:1027E000FFF75BFB012010BD002010BD2DE9F0417B
:1027F0001F460B4607F11F01042404EBD1018E187C
:10280000511E9D18761E6D1E8E438D4305FB07617C
:102810000C31FFF7A1FB040008D004F10C00811972
:102820002560C4E901103946FFF778FB2046BDE872
:10283000F0814DF6DE6220F8022B00F8021B002129
:1028400000F8011C70471030704770B50E46FFF756
:10285000FAFF00240546802E26D805EB04100068F8
:10286000B0421ED3FDF782FC05EB04140646D4E902
:102870000101814211D2E06878B1FFF78DFF0500B8
:1028800006D02168FFF7D5FF0546A068401CA06070
:102890003046FDF773FC284670BD3046FDF76EFCF0
:1028A00002E0641C042CD8D3002070BD2DE9F04157
:1028B0000C46FFF7C8FF074634F8040D0026A0F5C4
:1028C0005E413546DE391ED194F8020007EB051152
:1028D0000968884214D8FDF749FC07EB05158046C6
:1028E0002146E868FFF766FF012803D1A8680126A2
:1028F000401EA8604046FDF741FC3046BDE8F0812F
:102900006D1C042DE2D30020F8E700002DE9F05FF4
:102910008346FFF798FF002407462646A1464FF05E
:1029200010084FF4007A00BF08FA04F1BAFBF1F383
:1029300007EB041585E80A02E86808B1761C05E093
:1029400004225846091DFFF751FFE860641C042C5F
:10295000EAD316B10020BDE8F09F0120FBE700009C
:10296000F8B540211A48FDF79DFC1A4D1A4800277A
:102970004FF4E071AF610E460068FEF768FB04009B
:102980001CD03146FDF78EFC2C616C6127812046FE
:102990001C340121218104602046491C89B21C3469
:1029A0001029F7D308200B4A002300900C32102185
:1029B0001846FEF7E3FB20B10848F8BD0748001FA2
:1029C000F8BD00F0EFF80028FAD00448401CF8BD2C
:1029D0007801002024000020E40000200B03000206
:1029E0002DE9FC4F0023591E019100910169C1603E
:1029F000017A5B4C01F00F065A4D54F826104FF047
:102A0000030B4FF01009AD694A461F46DC46BBEB8D
:102A1000517F68D141F0004144F8261021F07F4AEF
:102A20000021A6465EF821C03CF07F442ED0B14282
:102A30002CD0BBEB9C7F29D1D446544506D3B4FBA4
:102A4000FCF80AFB184CBCF1000F0AD0D4465445E0
:102A50001CD2BCFBF4F804FB18ACBCF1000F0BD08B
:102A600014E0B4FBFAF8DDF804C0E0450ED2B4FB84
:102A7000FAF48946019409E0BAFBF4F8DDF800C0E5
:102A8000E04503D2BAFBF4F200920A46491C89B22F
:102A90001029C7D33349B9F1100F09691AD0C9EB0E
:102AA000C9042A4601EB840106E0D4680E89274454
:102AB0001489B44203D01268002AF6D134E062B31C
:102AC0001169CC1B0169B4FBF1F201FB1242891AB6
:102AD000C16029E0102A27D00023C2EBC202C360E4
:102AE00001EB82031EE00222B2EB517F1CD141F0C8
:102AF000004144F82610294662460CE00E69076939
:102B0000BE4207D10E7A06F00F0654F82660B2EBEB
:102B1000967F03D009680029F0D105E021B1002299
:102B20000B46C26019680BE0294607E0CA68C46812
:102B3000A24205D8A21A0B46C26009680029F5D145
:102B4000016019B1CA68C468121BCA6023B1186059
:102B500002210171BDE8FC8F02498861F8E700009D
:102B600078010020240000200EB508200C4C4FF006
:102B7000FF3500902B466A4601A9E068FEF760FB2E
:102B80000028F7D100980828F4D101980028F1D046
:102B9000FEF7A2FDDDE901108847FEF79DFDE9E79C
:102BA0002400002000B587B018216846FDF77AFBA5
:102BB000074800904FF48050039006A00490002036
:102BC000ADF8040069460648FEF79CFB07B000BD5F
:102BD000692B00085377745F5461736B0000000029
:102BE000580000207CB5184D26E02068A861A06937
:102BF000009060690190002308226946E868FEF7AA
:102C000030FB607920B1012810D0022814D111E0E6
:102C1000204600F01BF820894FF6E071884201D26F
:102C2000103001E000F00F00208105E02046FFF7A2
:102C3000D7FE01E001202071AC69002C02D0E068D1
:102C40000028D2D07CBD00002400002006494A693B
:102C50000260486100210171007A044A00F00F000F
:102C600042F8201070470000240000207801002066
:102C7000054810B5806928B1C168491EC16001D1FD
:102C8000FFF7B0FF002010BD24000020F0B4024682
:102C900011F01F034FEA511000D1401E916B1B4CE5
:102CA00001F0784101432079184400F01F0060F3DF
:102CB000DF619163216801EBC00302F130015868C4
:102CC000984201D118461DE03038956B876B25F08E
:102CD000784427F07846A6420AD8A41B05F0784528
:102CE0002C439463446BA4F130009C42EDD108E086
:102CF00027F0784325F078429A1A07F078431A4370
:102D000082633030F0BCFEF79FB9000080000020E5
:102D100070B5094DC0EBC00000EB4000E96801EB65
:102D200080046169206A8847002028802069BDE806
:102D30007040FEF7FDBB00004000002072B6FEE7C9
:102D40002DE9F041304D5420304F2C69641C444330
:102D500021463868FEF77BF9DFF8B480E860E8B315
:102D60002146FDF79FFA05F128000024406000602D
:102D700008304060006008305FF00106406000608D
:102D8000C4EBC400E96800EB400001EB80011E4881
:102D90008E800C6130302831FEF756F9641C0F2C00
:102DA000EED900266E622869E968C0EBC00000EB2E
:102DB000400001EB80011448203001600C61026882
:102DC0001121918000682021C180FFF701FB4FF4A1
:102DD00080710D463868FEF73AF900E012E0040011
:102DE00010D02946FDF75EFA07484030046086801F
:102DF000002064602460401C08342028F9D300209F
:102E0000BDE8F0814046FBE740000020E4000020E0
:102E10000002000310B54FF4AB710648FDF742FA0B
:102E200004490A2048700548034941600021816037
:102E300010BD0000B8010020F52E00084000002061
:102E40002DE9F0412A4800270179491C01F01F01B2
:102E50008180006800EBC1056C68AC4245D0303C15
:102E600004F13000A84206D0A06BA688400108D02B
:102E7000A06B401EA063002F37D0BDE8F041FEF7E5
:102E800003BA04F13000FEF7D5F830070BD5A0885F
:102E900020F00800A08004F12800FEF7CBF8002005
:102EA000A061E06113E0700503D5A08820F4806084
:102EB0000CE0B00407D504F12800FEF7BBF8A088A9
:102EC00020F4005002E0A08820F02000A080B0078D
:102ED00009D4A08840F00400A080E18804F1280013
:102EE000FFF75EFA01276C68B9E7BDE8F0810000E2
:102EF0008000002010B52A4C2068C0680068B0F13E
:102F0000CC3F08D027A0FEF72DFD20680269416A5A
:102F100026A0FEF727FD6068C2680168914203D9C8
:102F200080681044884211D21EA0FEF71BFD606825
:102F30000269416A27A0FEF715FD1AA0FEF712FDEF
:102F40006068C26801682CA0FEF70CFD6068374C11
:102F5000018A227804EB42025180416A20782022C3
:102F600004EB40101630FDF784F92178002004EBC3
:102F7000411181F835002178491CC9B221700A2914
:102F800004D12070607840F08000607004482038E0
:102F90008068002802D0BDE81040004710BD000046
:102FA000600000205B4552525D20000043555252A4
:102FB000454E54207461736B2049443A2025733A7E
:102FC000256420737461636B206F766572666C6F25
:102FD00077210A0048494748455354207461736B70
:102FE0002049443A2025733A2564205350206572C5
:102FF000726F72210A000000484947484553542027
:103000007461736B20537461636B506F696E746588
:10301000723A203078257820546F704F665374616F
:10302000636B3A20307825780A000000B801002050
:103030002DE9F0418046104816460F46046804F119
:1030400028000546FFF790F9A088294620F00400E3
:103050003843A0804046FDF7F7FF701C09D0A088D8
:10306000314640F04000A0802046BDE8F041FFF727
:103070000DBEBDE8F08100006000002070B5044680
:1030800028300D460646FDF7D5FFA088A843A0804E
:10309000400606D5204600F08FF8A08820F04000BA
:1030A000A080A088810708D440F00400A080E188B7
:1030B0003046BDE87040FFF773B970BD30B587B0DA
:1030C00014460546FFF7E6F8D0B9CCB1C5B1A06902
:1030D000092815DB262813DC18216846FDF7E2F8DD
:1030E0000095606969468000039020680490A0699B
:1030F000C0F12700ADF8040006A8FEF703F910B1EF
:10310000002007B030BD05490698C0EBC000096833
:1031100000EB400001EB8000F3E700004C000020D2
:10312000084810B5D0E90221521C41F10001C0E964
:10313000022100F05BF8FFF783FEBDE81040FFF7C7
:1031400097BD000090000020154810B5006818B128
:103150004FF47A71884201D2124810BDB0FBF1F2EF
:10316000114B124CB0FBF1F01A600022C4E90022AE
:103170000122401EB0F1807F02D30A48801C10BD9E
:103180004FF0E02148610A4BF02083F8140D002035
:1031900088610720086107480260002010BD000018
:1031A0001400002000040002A0000020980000206D
:1031B0000FE000E08800002030B40B4B826B1B68EE
:1031C000D10E03EBC103416B994209D08B6822F009
:1031D000784223F07844224403F078431A438A600B
:1031E00030BC3030FDF726BF800000200B480A4974
:1031F00002680B480B680068934204D00A60CB88D1
:10320000421E1A448A808A8880B2824203D10020FA
:103210000860FEF729BA7047A40000206000002073
:10322000980000200248002101600A21C1807047F7
:10323000A400002070B5144605460E464FF0CA3271
:103240002046FDF728F84FF0CC302060A0194FF051
:10325000043140F8441D4FF0053141604FF0063114
:1032600081604FF00731C1604FF0083101614FF0CC
:10327000093141614FF0103181614FF01131C1616D
:103280000021C0E908154FF0013181624900C16297
:103290004FF0033101634FF0123141630349816301
:1032A0000349C1634FF08071016470BD3D2D00087A
:1032B000112D000814330008000000000000000079
:1032C00000000000000000000002000018000000E4
:1032D0000000000000000000203300080000000093
:1032E00000000000000000000000000000020000DC
:1032F00018000000000000000000000000000000B6
:103300000000000001020304060708090000000095
:10331000010203046C6564307461736B000000008B
:103320006C6564317461736B000000004C330008FD
:1033300000000020EC000000A41900083834000848
:10334000EC00002024060000B41900080000000072
:10335000000000000100000010000000000000005C
:103360000024F40000000000000000000000000045
:10337000000000000000000000000000000000004D
:10338000000000000000000000000000000000003D
:10339000000000000000000000000000000000002D
:1033A000000000000000000000000000000000001D
:1033B000000000000000000000000000000000000D
:1033C00000000000000000000000000000000000FD
:1033D00000000000000000000000000000000000ED
:1033E00000000000000000000000000000000000DD
:1033F00000000000000000000000000000000000CD
:1034000000000000000000000000000000000000BC
:1034100000000000000000000000000000000000AC
:10342000000000000000000000000000000000009C
:08343000000000000000000094
:04000005080000ED02
:00000001FF
