Component: ARM Compiler 5.06 update 6 (build 750) Tool: armlink [4d35ed]

==============================================================================

Section Cross References

    startup_stm32f103xb.o(RESET) refers to startup_stm32f103xb.o(STACK) for __initial_sp
    startup_stm32f103xb.o(RESET) refers to startup_stm32f103xb.o(.text) for Reset_Handler
    startup_stm32f103xb.o(RESET) refers to stm32f1xx_it.o(i.NMI_Handler) for NMI_Handler
    startup_stm32f103xb.o(RESET) refers to stm32f1xx_it.o(i.HardFault_Handler) for HardFault_Handler
    startup_stm32f103xb.o(RESET) refers to stm32f1xx_it.o(i.MemManage_Handler) for MemManage_Handler
    startup_stm32f103xb.o(RESET) refers to stm32f1xx_it.o(i.BusFault_Handler) for BusFault_Handler
    startup_stm32f103xb.o(RESET) refers to stm32f1xx_it.o(i.UsageFault_Handler) for UsageFault_Handler
    startup_stm32f103xb.o(RESET) refers to stm32f1xx_it.o(i.SVC_Handler) for SVC_Handler
    startup_stm32f103xb.o(RESET) refers to stm32f1xx_it.o(i.DebugMon_Handler) for DebugMon_Handler
    startup_stm32f103xb.o(RESET) refers to los_dispatch_keil.o(.text) for PendSV_Handler
    startup_stm32f103xb.o(RESET) refers to los_hwi.o(i.SysTick_Handler) for SysTick_Handler
    startup_stm32f103xb.o(RESET) refers to stm32f1xx_it.o(i.TIM4_IRQHandler) for TIM4_IRQHandler
    startup_stm32f103xb.o(.text) refers to system_stm32f1xx.o(i.SystemInit) for SystemInit
    startup_stm32f103xb.o(.text) refers to entry.o(.ARM.Collect$$$$00000000) for __main
    main.o(i.HAL_TIM_PeriodElapsedCallback) refers to stm32f1xx_hal.o(i.HAL_IncTick) for HAL_IncTick
    main.o(i.LED0TaskEntry) refers to stm32f1xx_hal_gpio.o(i.HAL_GPIO_TogglePin) for HAL_GPIO_TogglePin
    main.o(i.LED0TaskEntry) refers to cmsis_liteos.o(i.osDelay) for osDelay
    main.o(i.LED1TaskEntry) refers to stm32f1xx_hal_gpio.o(i.HAL_GPIO_TogglePin) for HAL_GPIO_TogglePin
==============================================================================

Removing Unused input sections from the image.

    Removing startup_stm32f103xb.o(HEAP), (512 bytes).
    Removing main.o(.rev16_text), (4 bytes).
    Removing main.o(.revsh_text), (4 bytes).
    Removing main.o(.rrx_text), (6 bytes).
    Removing main.o(i.main2), (18 bytes).
    Removing gpio.o(.rev16_text), (4 bytes).
    Removing gpio.o(.revsh_text), (4 bytes).
    Removing gpio.o(.rrx_text), (6 bytes).
    Removing usart.o(.rev16_text), (4 bytes).
    Removing usart.o(.revsh_text), (4 bytes).
    Removing usart.o(.rrx_text), (6 bytes).
    Removing usart.o(i.HAL_UART_MspDeInit), (44 bytes).
    Removing stm32f1xx_it.o(.rev16_text), (4 bytes).
    Removing stm32f1xx_it.o(.revsh_text), (4 bytes).
    Removing stm32f1xx_it.o(.rrx_text), (6 bytes).
    Removing stm32f1xx_hal_msp.o(.rev16_text), (4 bytes).
    Removing stm32f1xx_hal_msp.o(.revsh_text), (4 bytes).
    Removing stm32f1xx_hal_msp.o(.rrx_text), (6 bytes).
==============================================================================

Image Symbol Table

    Local Symbols

    Symbol Name                              Value     Ov Type        Size  Object(Section)

    ../Core/Src/gpio.c                       0x00000000   Number         0  gpio.o ABSOLUTE
    ../Core/Src/main.c                       0x00000000   Number         0  main.o ABSOLUTE
    ../Core/Src/stm32f1xx_hal_msp.c          0x00000000   Number         0  stm32f1xx_hal_msp.o ABSOLUTE
    ../Core/Src/stm32f1xx_hal_timebase_tim.c 0x00000000   Number         0  stm32f1xx_hal_timebase_tim.o ABSOLUTE
    ../Core/Src/stm32f1xx_it.c               0x00000000   Number         0  stm32f1xx_it.o ABSOLUTE
    ../Core/Src/system_stm32f1xx.c           0x00000000   Number         0  system_stm32f1xx.o ABSOLUTE
    ../Core/Src/usart.c                      0x00000000   Number         0  usart.o ABSOLUTE
    ../Drivers/STM32F1xx_HAL_Driver/Src/stm32f1xx_hal.c 0x00000000   Number         0  stm32f1xx_hal.o ABSOLUTE
    ../Drivers/STM32F1xx_HAL_Driver/Src/stm32f1xx_hal_cortex.c 0x00000000   Number         0  stm32f1xx_hal_cortex.o ABSOLUTE
    ../Drivers/STM32F1xx_HAL_Driver/Src/stm32f1xx_hal_dma.c 0x00000000   Number         0  stm32f1xx_hal_dma.o ABSOLUTE
    ../Drivers/STM32F1xx_HAL_Driver/Src/stm32f1xx_hal_exti.c 0x00000000   Number         0  stm32f1xx_hal_exti.o ABSOLUTE
    ../Drivers/STM32F1xx_HAL_Driver/Src/stm32f1xx_hal_flash.c 0x00000000   Number         0  stm32f1xx_hal_flash.o ABSOLUTE
    ../Drivers/STM32F1xx_HAL_Driver/Src/stm32f1xx_hal_flash_ex.c 0x00000000   Number         0  stm32f1xx_hal_flash_ex.o ABSOLUTE
    ../Drivers/STM32F1xx_HAL_Driver/Src/stm32f1xx_hal_gpio.c 0x00000000   Number         0  stm32f1xx_hal_gpio.o ABSOLUTE
    ../Drivers/STM32F1xx_HAL_Driver/Src/stm32f1xx_hal_gpio_ex.c 0x00000000   Number         0  stm32f1xx_hal_gpio_ex.o ABSOLUTE
    ../Drivers/STM32F1xx_HAL_Driver/Src/stm32f1xx_hal_pwr.c 0x00000000   Number         0  stm32f1xx_hal_pwr.o ABSOLUTE
    ../Drivers/STM32F1xx_HAL_Driver/Src/stm32f1xx_hal_rcc.c 0x00000000   Number         0  stm32f1xx_hal_rcc.o ABSOLUTE
    ../Drivers/STM32F1xx_HAL_Driver/Src/stm32f1xx_hal_rcc_ex.c 0x00000000   Number         0  stm32f1xx_hal_rcc_ex.o ABSOLUTE
    ../Drivers/STM32F1xx_HAL_Driver/Src/stm32f1xx_hal_tim.c 0x00000000   Number         0  stm32f1xx_hal_tim.o ABSOLUTE
    ../Drivers/STM32F1xx_HAL_Driver/Src/stm32f1xx_hal_tim_ex.c 0x00000000   Number         0  stm32f1xx_hal_tim_ex.o ABSOLUTE
    ../Drivers/STM32F1xx_HAL_Driver/Src/stm32f1xx_hal_uart.c 0x00000000   Number         0  stm32f1xx_hal_uart.o ABSOLUTE
    ../clib/microlib/division.c              0x00000000   Number         0  uldiv.o ABSOLUTE
    ../clib/microlib/division.c              0x00000000   Number         0  uidiv.o ABSOLUTE
    ../clib/microlib/init/entry.s            0x00000000   Number         0  entry11b.o ABSOLUTE
    ../clib/microlib/init/entry.s            0x00000000   Number         0  entry.o ABSOLUTE
    ../clib/microlib/init/entry.s            0x00000000   Number         0  entry11a.o ABSOLUTE
    ../clib/microlib/init/entry.s            0x00000000   Number         0  entry5.o ABSOLUTE
    ../clib/microlib/init/entry.s            0x00000000   Number         0  entry10b.o ABSOLUTE
    ../clib/microlib/init/entry.s            0x00000000   Number         0  entry10a.o ABSOLUTE
    ../clib/microlib/init/entry.s            0x00000000   Number         0  entry9b.o ABSOLUTE
    ../clib/microlib/init/entry.s            0x00000000   Number         0  entry9a.o ABSOLUTE
    ../clib/microlib/init/entry.s            0x00000000   Number         0  entry2.o ABSOLUTE
    ../clib/microlib/init/entry.s            0x00000000   Number         0  entry8a.o ABSOLUTE
    ../clib/microlib/init/entry.s            0x00000000   Number         0  entry7b.o ABSOLUTE
    ../clib/microlib/init/entry.s            0x00000000   Number         0  entry7a.o ABSOLUTE
    ../clib/microlib/init/entry.s            0x00000000   Number         0  entry8b.o ABSOLUTE
    ../clib/microlib/longlong.c              0x00000000   Number         0  llsshr.o ABSOLUTE
    ../clib/microlib/longlong.c              0x00000000   Number         0  llushr.o ABSOLUTE
    ../clib/microlib/longlong.c              0x00000000   Number         0  llshl.o ABSOLUTE
    ../clib/microlib/printf/printf.c         0x00000000   Number         0  printf1.o ABSOLUTE
    ../clib/microlib/printf/printf.c         0x00000000   Number         0  printfb.o ABSOLUTE
    ../clib/microlib/printf/printf.c         0x00000000   Number         0  printf5.o ABSOLUTE
    ../clib/microlib/printf/printf.c         0x00000000   Number         0  printf8.o ABSOLUTE
    ../clib/microlib/printf/printf.c         0x00000000   Number         0  printf4.o ABSOLUTE
    ../clib/microlib/printf/printf.c         0x00000000   Number         0  printf6.o ABSOLUTE
    ../clib/microlib/printf/printf.c         0x00000000   Number         0  printf7.o ABSOLUTE
    ../clib/microlib/printf/printf.c         0x00000000   Number         0  printf3.o ABSOLUTE
    ../clib/microlib/printf/printf.c         0x00000000   Number         0  printf2.o ABSOLUTE
    ../clib/microlib/printf/printf.c         0x00000000   Number         0  printf0.o ABSOLUTE
    ../clib/microlib/printf/printf.c         0x00000000   Number         0  printfa.o ABSOLUTE
    ../clib/microlib/printf/stubs.s          0x00000000   Number         0  stubs.o ABSOLUTE
    ../clib/microlib/stdio/fputc.c           0x00000000   Number         0  fputc.o ABSOLUTE
    ../clib/microlib/stdio/semi.s            0x00000000   Number         0  semi.o ABSOLUTE
    ../clib/microlib/stdio/streams.c         0x00000000   Number         0  stdout.o ABSOLUTE
    ../clib/microlib/string/memcpy.c         0x00000000   Number         0  memcpya.o ABSOLUTE
    ../clib/microlib/string/memcpy.c         0x00000000   Number         0  memcpyb.o ABSOLUTE
    ../clib/microlib/string/memset.c         0x00000000   Number         0  memseta.o ABSOLUTE
    ../clib/microlib/string/strncpy.c        0x00000000   Number         0  strncpy.o ABSOLUTE
    ../clib/microlib/stubs.s                 0x00000000   Number         0  iusefp.o ABSOLUTE
    ../clib/microlib/stubs.s                 0x00000000   Number         0  iusesemip.o ABSOLUTE
    ../fplib/microlib/fpadd.c                0x00000000   Number         0  dadd.o ABSOLUTE
    ../fplib/microlib/fpdiv.c                0x00000000   Number         0  ddiv.o ABSOLUTE
    ../fplib/microlib/fpepilogue.c           0x00000000   Number         0  depilogue.o ABSOLUTE
    ../fplib/microlib/fpfix.c                0x00000000   Number         0  dfixul.o ABSOLUTE
    ../fplib/microlib/fpflt.c                0x00000000   Number         0  dfltul.o ABSOLUTE
    ../fplib/microlib/fpflt.c                0x00000000   Number         0  dfltui.o ABSOLUTE
    ../fplib/microlib/fpmul.c                0x00000000   Number         0  dmul.o ABSOLUTE
    ..\Core\Src\gpio.c                       0x00000000   Number         0  gpio.o ABSOLUTE
    ..\Core\Src\main.c                       0x00000000   Number         0  main.o ABSOLUTE
    ..\Core\Src\stm32f1xx_hal_msp.c          0x00000000   Number         0  stm32f1xx_hal_msp.o ABSOLUTE
    ..\Core\Src\stm32f1xx_hal_timebase_tim.c 0x00000000   Number         0  stm32f1xx_hal_timebase_tim.o ABSOLUTE
    ..\Core\Src\stm32f1xx_it.c               0x00000000   Number         0  stm32f1xx_it.o ABSOLUTE
    ..\Core\Src\system_stm32f1xx.c           0x00000000   Number         0  system_stm32f1xx.o ABSOLUTE
    ..\Core\Src\usart.c                      0x00000000   Number         0  usart.o ABSOLUTE
    ..\Drivers\STM32F1xx_HAL_Driver\Src\stm32f1xx_hal.c 0x00000000   Number         0  stm32f1xx_hal.o ABSOLUTE
    ..\Drivers\STM32F1xx_HAL_Driver\Src\stm32f1xx_hal_cortex.c 0x00000000   Number         0  stm32f1xx_hal_cortex.o ABSOLUTE
    ..\Drivers\STM32F1xx_HAL_Driver\Src\stm32f1xx_hal_dma.c 0x00000000   Number         0  stm32f1xx_hal_dma.o ABSOLUTE
    ..\Drivers\STM32F1xx_HAL_Driver\Src\stm32f1xx_hal_exti.c 0x00000000   Number         0  stm32f1xx_hal_exti.o ABSOLUTE
    ..\Drivers\STM32F1xx_HAL_Driver\Src\stm32f1xx_hal_flash.c 0x00000000   Number         0  stm32f1xx_hal_flash.o ABSOLUTE
    ..\Drivers\STM32F1xx_HAL_Driver\Src\stm32f1xx_hal_flash_ex.c 0x00000000   Number         0  stm32f1xx_hal_flash_ex.o ABSOLUTE
    ..\Drivers\STM32F1xx_HAL_Driver\Src\stm32f1xx_hal_gpio.c 0x00000000   Number         0  stm32f1xx_hal_gpio.o ABSOLUTE
    ..\Drivers\STM32F1xx_HAL_Driver\Src\stm32f1xx_hal_gpio_ex.c 0x00000000   Number         0  stm32f1xx_hal_gpio_ex.o ABSOLUTE
    ..\Drivers\STM32F1xx_HAL_Driver\Src\stm32f1xx_hal_pwr.c 0x00000000   Number         0  stm32f1xx_hal_pwr.o ABSOLUTE
    ..\Drivers\STM32F1xx_HAL_Driver\Src\stm32f1xx_hal_rcc.c 0x00000000   Number         0  stm32f1xx_hal_rcc.o ABSOLUTE
    ..\Drivers\STM32F1xx_HAL_Driver\Src\stm32f1xx_hal_rcc_ex.c 0x00000000   Number         0  stm32f1xx_hal_rcc_ex.o ABSOLUTE
    ..\Drivers\STM32F1xx_HAL_Driver\Src\stm32f1xx_hal_tim.c 0x00000000   Number         0  stm32f1xx_hal_tim.o ABSOLUTE
    ..\Drivers\STM32F1xx_HAL_Driver\Src\stm32f1xx_hal_tim_ex.c 0x00000000   Number         0  stm32f1xx_hal_tim_ex.o ABSOLUTE
    ..\Drivers\STM32F1xx_HAL_Driver\Src\stm32f1xx_hal_uart.c 0x00000000   Number         0  stm32f1xx_hal_uart.o ABSOLUTE
    ..\LiteOS\arch\arm\arm-m\cortex-m3\keil\los_dispatch_keil.S 0x00000000   Number         0  los_dispatch_keil.o ABSOLUTE
    ..\LiteOS\arch\arm\arm-m\src\los_hw.c    0x00000000   Number         0  los_hw.o ABSOLUTE
    ..\LiteOS\arch\arm\arm-m\src\los_hw_tick.c 0x00000000   Number         0  los_hw_tick.o ABSOLUTE
    ..\LiteOS\arch\arm\arm-m\src\los_hwi.c   0x00000000   Number         0  los_hwi.o ABSOLUTE
    ..\LiteOS\kernel\base\core\los_priqueue.c 0x00000000   Number         0  los_priqueue.o ABSOLUTE
    ..\LiteOS\kernel\base\core\los_swtmr.c   0x00000000   Number         0  los_swtmr.o ABSOLUTE
    ..\LiteOS\kernel\base\core\los_sys.c     0x00000000   Number         0  los_sys.o ABSOLUTE
    ..\LiteOS\kernel\base\core\los_task.c    0x00000000   Number         0  los_task.o ABSOLUTE
    ..\LiteOS\kernel\base\core\los_tick.c    0x00000000   Number         0  los_tick.o ABSOLUTE
    ..\LiteOS\kernel\base\core\los_timeslice.c 0x00000000   Number         0  los_timeslice.o ABSOLUTE
    ..\LiteOS\kernel\base\ipc\los_event.c    0x00000000   Number         0  los_event.o ABSOLUTE
    ..\LiteOS\kernel\base\ipc\los_mux.c      0x00000000   Number         0  los_mux.o ABSOLUTE
    ..\LiteOS\kernel\base\ipc\los_queue.c    0x00000000   Number         0  los_queue.o ABSOLUTE
    ..\LiteOS\kernel\base\ipc\los_sem.c      0x00000000   Number         0  los_sem.o ABSOLUTE
    ..\LiteOS\kernel\base\mem\bestfit_little\los_heap.c 0x00000000   Number         0  los_heap.o ABSOLUTE
    ..\LiteOS\kernel\base\mem\bestfit_little\los_memory.c 0x00000000   Number         0  los_memory.o ABSOLUTE
    ..\LiteOS\kernel\base\mem\common\los_memcheck.c 0x00000000   Number         0  los_memcheck.o ABSOLUTE
    ..\LiteOS\kernel\base\mem\common\los_memstat.c 0x00000000   Number         0  los_memstat.o ABSOLUTE
    ..\LiteOS\kernel\base\mem\common\los_slab.c 0x00000000   Number         0  los_slab.o ABSOLUTE
    ..\LiteOS\kernel\base\mem\common\los_slabmem.c 0x00000000   Number         0  los_slabmem.o ABSOLUTE
    ..\LiteOS\kernel\base\mem\membox\los_membox.c 0x00000000   Number         0  los_membox.o ABSOLUTE
    ..\LiteOS\kernel\base\misc\los_misc.c    0x00000000   Number         0  los_misc.o ABSOLUTE
    ..\LiteOS\kernel\base\om\los_err.c       0x00000000   Number         0  los_err.o ABSOLUTE
    ..\LiteOS\kernel\extended\tickless\los_tickless.c 0x00000000   Number         0  los_tickless.o ABSOLUTE
    ..\LiteOS\kernel\los_init.c              0x00000000   Number         0  los_init.o ABSOLUTE
    ..\LiteOS\osdepends\liteos\cmsis\cmsis_liteos.c 0x00000000   Number         0  cmsis_liteos.o ABSOLUTE
    ..\\LiteOS\\arch\\arm\\arm-m\\src\\los_hw.c 0x00000000   Number         0  los_hw.o ABSOLUTE
    ..\\LiteOS\\arch\\arm\\arm-m\\src\\los_hw_tick.c 0x00000000   Number         0  los_hw_tick.o ABSOLUTE
    ..\\LiteOS\\arch\\arm\\arm-m\\src\\los_hwi.c 0x00000000   Number         0  los_hwi.o ABSOLUTE
    ..\\LiteOS\\kernel\\base\\core\\los_priqueue.c 0x00000000   Number         0  los_priqueue.o ABSOLUTE
    ..\\LiteOS\\kernel\\base\\core\\los_swtmr.c 0x00000000   Number         0  los_swtmr.o ABSOLUTE
    ..\\LiteOS\\kernel\\base\\core\\los_sys.c 0x00000000   Number         0  los_sys.o ABSOLUTE
    ..\\LiteOS\\kernel\\base\\core\\los_task.c 0x00000000   Number         0  los_task.o ABSOLUTE
    ..\\LiteOS\\kernel\\base\\core\\los_tick.c 0x00000000   Number         0  los_tick.o ABSOLUTE
    ..\\LiteOS\\kernel\\base\\core\\los_timeslice.c 0x00000000   Number         0  los_timeslice.o ABSOLUTE
    ..\\LiteOS\\kernel\\base\\ipc\\los_event.c 0x00000000   Number         0  los_event.o ABSOLUTE
    ..\\LiteOS\\kernel\\base\\ipc\\los_mux.c 0x00000000   Number         0  los_mux.o ABSOLUTE
    ..\\LiteOS\\kernel\\base\\ipc\\los_queue.c 0x00000000   Number         0  los_queue.o ABSOLUTE
    ..\\LiteOS\\kernel\\base\\ipc\\los_sem.c 0x00000000   Number         0  los_sem.o ABSOLUTE
    ..\\LiteOS\\kernel\\base\\mem\\bestfit_little\\los_heap.c 0x00000000   Number         0  los_heap.o ABSOLUTE
    ..\\LiteOS\\kernel\\base\\mem\\bestfit_little\\los_memory.c 0x00000000   Number         0  los_memory.o ABSOLUTE
    ..\\LiteOS\\kernel\\base\\mem\\common\\los_memcheck.c 0x00000000   Number         0  los_memcheck.o ABSOLUTE
    ..\\LiteOS\\kernel\\base\\mem\\common\\los_memstat.c 0x00000000   Number         0  los_memstat.o ABSOLUTE
    ..\\LiteOS\\kernel\\base\\mem\\common\\los_slab.c 0x00000000   Number         0  los_slab.o ABSOLUTE
    ..\\LiteOS\\kernel\\base\\mem\\common\\los_slabmem.c 0x00000000   Number         0  los_slabmem.o ABSOLUTE
    ..\\LiteOS\\kernel\\base\\mem\\membox\\los_membox.c 0x00000000   Number         0  los_membox.o ABSOLUTE
    ..\\LiteOS\\kernel\\base\\misc\\los_misc.c 0x00000000   Number         0  los_misc.o ABSOLUTE
    ..\\LiteOS\\kernel\\base\\om\\los_err.c  0x00000000   Number         0  los_err.o ABSOLUTE
    ..\\LiteOS\\kernel\\extended\\tickless\\los_tickless.c 0x00000000   Number         0  los_tickless.o ABSOLUTE
    ..\\LiteOS\\kernel\\los_init.c           0x00000000   Number         0  los_init.o ABSOLUTE
    ..\\LiteOS\\osdepends\\liteos\\cmsis\\cmsis_liteos.c 0x00000000   Number         0  cmsis_liteos.o ABSOLUTE
    cdrcmple.s                               0x00000000   Number         0  cdrcmple.o ABSOLUTE
    dc.s                                     0x00000000   Number         0  dc.o ABSOLUTE
    handlers.s                               0x00000000   Number         0  handlers.o ABSOLUTE
    init.s                                   0x00000000   Number         0  init.o ABSOLUTE
    startup_stm32f103xb.s                    0x00000000   Number         0  startup_stm32f103xb.o ABSOLUTE
    RESET                                    0x08000000   Section      236  startup_stm32f103xb.o(RESET)
    .ARM.Collect$$$$00000000                 0x080000ec   Section        0  entry.o(.ARM.Collect$$$$00000000)
    .ARM.Collect$$$$00000001                 0x080000ec   Section        4  entry2.o(.ARM.Collect$$$$00000001)
    .ARM.Collect$$$$00000004                 0x080000f0   Section        4  entry5.o(.ARM.Collect$$$$00000004)
    .ARM.Collect$$$$00000008                 0x080000f4   Section        0  entry7b.o(.ARM.Collect$$$$00000008)
    .ARM.Collect$$$$0000000A                 0x080000f4   Section        0  entry8b.o(.ARM.Collect$$$$0000000A)
    .ARM.Collect$$$$0000000B                 0x080000f4   Section        8  entry9a.o(.ARM.Collect$$$$0000000B)
    .ARM.Collect$$$$0000000D                 0x080000fc   Section        0  entry10a.o(.ARM.Collect$$$$0000000D)
    .ARM.Collect$$$$0000000F                 0x080000fc   Section        0  entry11a.o(.ARM.Collect$$$$0000000F)
    .ARM.Collect$$$$00002712                 0x080000fc   Section        4  entry2.o(.ARM.Collect$$$$00002712)
    __lit__00000000                          0x080000fc   Data           4  entry2.o(.ARM.Collect$$$$00002712)
    .text                                    0x08000100   Section       36  startup_stm32f103xb.o(.text)
    .text                                    0x08000124   Section      204  los_dispatch_keil.o(.text)
    .text                                    0x080001f0   Section        0  uldiv.o(.text)
    .text                                    0x08000252   Section        0  llushr.o(.text)
    .text                                    0x08000272   Section        0  memcpya.o(.text)
    .text                                    0x08000296   Section        0  memseta.o(.text)
    .text                                    0x080002ba   Section        0  llshl.o(.text)
    .text                                    0x080002d8   Section       36  init.o(.text)
    .text                                    0x080002fc   Section        0  semi.o(.text)
    .text                                    0x080002fc   Section        0  iusesemip.o(.text)
    i.BusFault_Handler                       0x080002fc   Section        0  stm32f1xx_it.o(i.BusFault_Handler)
    i.DebugMon_Handler                       0x080002fe   Section        0  stm32f1xx_it.o(i.DebugMon_Handler)
    i.Error_Handler                          0x08000300   Section        0  main.o(i.Error_Handler)
    i.HAL_GPIO_Init                          0x08000304   Section        0  stm32f1xx_hal_gpio.o(i.HAL_GPIO_Init)
    i.HAL_GPIO_TogglePin                     0x080004e4   Section        0  stm32f1xx_hal_gpio.o(i.HAL_GPIO_TogglePin)
    i.HAL_GPIO_WritePin                      0x080004f4   Section        0  stm32f1xx_hal_gpio.o(i.HAL_GPIO_WritePin)
    i.HAL_GetTick                            0x08000500   Section        0  stm32f1xx_hal.o(i.HAL_GetTick)
    i.HAL_IncTick                            0x0800050c   Section        0  stm32f1xx_hal.o(i.HAL_IncTick)
    i.HAL_Init                               0x0800051c   Section        0  stm32f1xx_hal.o(i.HAL_Init)
    i.HAL_InitTick                           0x08000540   Section        0  stm32f1xx_hal_timebase_tim.o(i.HAL_InitTick)
    i.HAL_MspInit                            0x080005b4   Section        0  stm32f1xx_hal_msp.o(i.HAL_MspInit)
    i.HAL_NVIC_EnableIRQ                     0x080005f0   Section        0  stm32f1xx_hal_cortex.o(i.HAL_NVIC_EnableIRQ)
    i.HAL_NVIC_SetPriority                   0x0800060c   Section        0  stm32f1xx_hal_cortex.o(i.HAL_NVIC_SetPriority)
    i.HAL_NVIC_SetPriorityGrouping           0x0800064c   Section        0  stm32f1xx_hal_cortex.o(i.HAL_NVIC_SetPriorityGrouping)
    i.HAL_RCC_ClockConfig                    0x08000670   Section        0  stm32f1xx_hal_rcc.o(i.HAL_RCC_ClockConfig)
    i.HAL_RCC_GetClockConfig                 0x0800079c   Section        0  stm32f1xx_hal_rcc.o(i.HAL_RCC_GetClockConfig)
    i.HAL_RCC_GetPCLK1Freq                   0x080007dc   Section        0  stm32f1xx_hal_rcc.o(i.HAL_RCC_GetPCLK1Freq)
    i.HAL_RCC_GetPCLK2Freq                   0x080007fc   Section        0  stm32f1xx_hal_rcc.o(i.HAL_RCC_GetPCLK2Freq)
    i.HAL_RCC_GetSysClockFreq                0x0800081c   Section        0  stm32f1xx_hal_rcc.o(i.HAL_RCC_GetSysClockFreq)
    i.HAL_RCC_OscConfig                      0x08000888   Section        0  stm32f1xx_hal_rcc.o(i.HAL_RCC_OscConfig)
    i.HAL_TIMEx_BreakCallback                0x08000ba8   Section        0  stm32f1xx_hal_tim_ex.o(i.HAL_TIMEx_BreakCallback)
    i.HAL_TIMEx_CommutCallback               0x08000baa   Section        0  stm32f1xx_hal_tim_ex.o(i.HAL_TIMEx_CommutCallback)
    i.HAL_TIM_Base_Init                      0x08000bac   Section        0  stm32f1xx_hal_tim.o(i.HAL_TIM_Base_Init)
    i.HAL_TIM_Base_MspInit                   0x08000c06   Section        0  stm32f1xx_hal_tim.o(i.HAL_TIM_Base_MspInit)
    i.HAL_TIM_Base_Start_IT                  0x08000c08   Section        0  stm32f1xx_hal_tim.o(i.HAL_TIM_Base_Start_IT)
    i.HAL_TIM_IC_CaptureCallback             0x08000c60   Section        0  stm32f1xx_hal_tim.o(i.HAL_TIM_IC_CaptureCallback)
    i.HAL_TIM_IRQHandler                     0x08000c62   Section        0  stm32f1xx_hal_tim.o(i.HAL_TIM_IRQHandler)
    i.HAL_TIM_OC_DelayElapsedCallback        0x08000dc8   Section        0  stm32f1xx_hal_tim.o(i.HAL_TIM_OC_DelayElapsedCallback)
    i.HAL_TIM_PWM_PulseFinishedCallback      0x08000dca   Section        0  stm32f1xx_hal_tim.o(i.HAL_TIM_PWM_PulseFinishedCallback)
    i.HAL_TIM_PeriodElapsedCallback          0x08000dcc   Section        0  main.o(i.HAL_TIM_PeriodElapsedCallback)
    i.HAL_TIM_TriggerCallback                0x08000de0   Section        0  stm32f1xx_hal_tim.o(i.HAL_TIM_TriggerCallback)
    i.HAL_UART_Init                          0x08000de2   Section        0  stm32f1xx_hal_uart.o(i.HAL_UART_Init)
    i.HAL_UART_MspInit                       0x08000e44   Section        0  usart.o(i.HAL_UART_MspInit)
    i.HardFault_Handler                      0x08000eb8   Section        0  stm32f1xx_it.o(i.HardFault_Handler)
    i.LED0TaskEntry                          0x08000ebc   Section        0  main.o(i.LED0TaskEntry)
    i.LED1TaskEntry                          0x08000edc   Section        0  main.o(i.LED1TaskEntry)
    i.LOS_Align                              0x08000ef8   Section        0  los_misc.o(i.LOS_Align)
    i.LOS_KernelInit                         0x08000f0c   Section        0  los_init.o(i.LOS_KernelInit)
    i.LOS_ListAdd                            0x08000ffc   Section        0  los_task.o(i.LOS_ListAdd)
    LOS_ListAdd                              0x08000ffd   Thumb Code    14  los_task.o(i.LOS_ListAdd)
    i.LOS_ListAdd                            0x0800100a   Section        0  los_mux.o(i.LOS_ListAdd)
    LOS_ListAdd                              0x0800100b   Thumb Code    14  los_mux.o(i.LOS_ListAdd)
    i.LOS_ListAdd                            0x08001018   Section        0  los_queue.o(i.LOS_ListAdd)
    LOS_ListAdd                              0x08001019   Thumb Code    14  los_queue.o(i.LOS_ListAdd)
    i.LOS_ListAdd                            0x08001026   Section        0  los_sem.o(i.LOS_ListAdd)
    LOS_ListAdd                              0x08001027   Thumb Code    14  los_sem.o(i.LOS_ListAdd)
    i.LOS_ListDelete                         0x08001034   Section        0  los_task.o(i.LOS_ListDelete)
    LOS_ListDelete                           0x08001035   Thumb Code    20  los_task.o(i.LOS_ListDelete)
    i.LOS_ListTailInsert                     0x08001048   Section        0  los_task.o(i.LOS_ListTailInsert)
    LOS_ListTailInsert                       0x08001049   Thumb Code     6  los_task.o(i.LOS_ListTailInsert)
    i.LOS_MemAlloc                           0x0800104e   Section        0  los_memory.o(i.LOS_MemAlloc)
    i.LOS_MemAllocAlign                      0x08001076   Section        0  los_memory.o(i.LOS_MemAllocAlign)
    i.LOS_MemFree                            0x0800107a   Section        0  los_memory.o(i.LOS_MemFree)
    i.LOS_MemInit                            0x080010a0   Section        0  los_memory.o(i.LOS_MemInit)
    i.LOS_QueueCreate                        0x0800117c   Section        0  los_queue.o(i.LOS_QueueCreate)
    i.LOS_QueueReadCopy                      0x08001240   Section        0  los_queue.o(i.LOS_QueueReadCopy)
    i.LOS_QueueWriteCopy                     0x08001262   Section        0  los_queue.o(i.LOS_QueueWriteCopy)
    i.LOS_Schedule                           0x08001288   Section        0  los_hw.o(i.LOS_Schedule)
    i.LOS_Start                              0x080012c8   Section        0  los_init.o(i.LOS_Start)
    i.LOS_TaskCreate                         0x08001304   Section        0  los_task.o(i.LOS_TaskCreate)
    i.LOS_TaskCreateOnly                     0x08001374   Section        0  los_task.o(i.LOS_TaskCreateOnly)
    i.LOS_TaskDelay                          0x080014c4   Section        0  los_task.o(i.LOS_TaskDelay)
    i.LOS_TaskDelete                         0x08001530   Section        0  los_task.o(i.LOS_TaskDelete)
    i.LOS_TaskYield                          0x08001668   Section        0  los_task.o(i.LOS_TaskYield)
    i.LOS_TickCountGet                       0x080016d8   Section        0  los_sys.o(i.LOS_TickCountGet)
    i.MX_GPIO_Init                           0x080016e4   Section        0  gpio.o(i.MX_GPIO_Init)
    i.MX_USART1_UART_Init                    0x0800176c   Section        0  usart.o(i.MX_USART1_UART_Init)
    i.MemManage_Handler                      0x080017a4   Section        0  stm32f1xx_it.o(i.MemManage_Handler)
    i.NMI_Handler                            0x080017a6   Section        0  stm32f1xx_it.o(i.NMI_Handler)
    i.SVC_Handler                            0x080017a8   Section        0  stm32f1xx_it.o(i.SVC_Handler)
    i.SysTick_Handler                        0x080017ac   Section        0  los_hwi.o(i.SysTick_Handler)
    i.SystemClock_Config                     0x080017d0   Section        0  main.o(i.SystemClock_Config)
    i.SystemInit                             0x0800182e   Section        0  system_stm32f1xx.o(i.SystemInit)
    i.TIM4_IRQHandler                        0x08001830   Section        0  stm32f1xx_it.o(i.TIM4_IRQHandler)
    i.TIM_Base_SetConfig                     0x0800183c   Section        0  stm32f1xx_hal_tim.o(i.TIM_Base_SetConfig)
    i.UART_SetConfig                         0x080018a8   Section        0  stm32f1xx_hal_uart.o(i.UART_SetConfig)
    UART_SetConfig                           0x080018a9   Thumb Code   178  stm32f1xx_hal_uart.o(i.UART_SetConfig)
    i.UsageFault_Handler                     0x08001960   Section        0  stm32f1xx_it.o(i.UsageFault_Handler)
    i.__0printf$8                            0x08001964   Section        0  printf8.o(i.__0printf$8)
    i.__NVIC_SetPriority                     0x08001984   Section        0  stm32f1xx_hal_cortex.o(i.__NVIC_SetPriority)
    __NVIC_SetPriority                       0x08001985   Thumb Code    32  stm32f1xx_hal_cortex.o(i.__NVIC_SetPriority)
    i.__scatterload_copy                     0x080019a4   Section       14  handlers.o(i.__scatterload_copy)
    i.__scatterload_null                     0x080019b2   Section        2  handlers.o(i.__scatterload_null)
    i.__scatterload_zeroinit                 0x080019b4   Section       14  handlers.o(i.__scatterload_zeroinit)
    i._printf_core                           0x080019c4   Section        0  printf8.o(i._printf_core)
    _printf_core                             0x080019c5   Thumb Code   996  printf8.o(i._printf_core)
    i._printf_post_padding                   0x08001dd4   Section        0  printf8.o(i._printf_post_padding)
    _printf_post_padding                     0x08001dd5   Thumb Code    36  printf8.o(i._printf_post_padding)
    i._printf_pre_padding                    0x08001df8   Section        0  printf8.o(i._printf_pre_padding)
    _printf_pre_padding                      0x08001df9   Thumb Code    46  printf8.o(i._printf_pre_padding)
    i.fputc                                  0x08001e26   Section        0  fputc.o(i.fputc)
    i.main                                   0x08001e38   Section        0  main.o(i.main)
    i.osAlarmHeapInfo                        0x08001e80   Section        0  los_heap.o(i.osAlarmHeapInfo)
    i.osAtomicBitsetClearBit                 0x08001e9a   Section        0  los_slab.o(i.osAtomicBitsetClearBit)
    i.osAtomicBitsetFindClearAndSet          0x08001eb8   Section        0  los_slab.o(i.osAtomicBitsetFindClearAndSet)
    i.osAtomicBitsetGetBit                   0x08001efa   Section        0  los_slab.o(i.osAtomicBitsetGetBit)
    i.osAtomicBitsetInit                     0x08001f1c   Section        0  los_slab.o(i.osAtomicBitsetInit)
    i.osDelay                                0x08001f48   Section        0  cmsis_liteos.o(i.osDelay)
    i.osHeapAlloc                            0x08001f58   Section        0  los_heap.o(i.osHeapAlloc)
    i.osHeapAllocAlign                       0x08002078   Section        0  los_heap.o(i.osHeapAllocAlign)
    i.osHeapFree                             0x080020b4   Section        0  los_heap.o(i.osHeapFree)
    i.osHeapInit                             0x080021b8   Section        0  los_heap.o(i.osHeapInit)
    i.osHeapPrvGetNext                       0x080021f2   Section        0  los_heap.o(i.osHeapPrvGetNext)
    i.osHeapStatisticsGet                    0x08002208   Section        0  los_heap.o(i.osHeapStatisticsGet)
    i.osIdleTask                             0x08002250   Section        0  los_task.o(i.osIdleTask)
    i.osIdleTaskCreate                       0x08002254   Section        0  los_task.o(i.osIdleTaskCreate)
    i.osIntNumGet                            0x08002294   Section        0  los_hwi.o(i.osIntNumGet)
    i.osKernelInitialize                     0x0800229c   Section        0  cmsis_liteos.o(i.osKernelInitialize)
    i.osKernelStart                          0x080022cc   Section        0  cmsis_liteos.o(i.osKernelStart)
    i.osMemSystemInit                        0x080022fc   Section        0  los_memory.o(i.osMemSystemInit)
    i.osMuxInit                              0x08002310   Section        0  los_mux.o(i.osMuxInit)
    i.osPriqueueDequeue                      0x08002368   Section        0  los_priqueue.o(i.osPriqueueDequeue)
    i.osPriqueueEnqueue                      0x080023a0   Section        0  los_priqueue.o(i.osPriqueueEnqueue)
    i.osPriqueueInit                         0x080023d0   Section        0  los_priqueue.o(i.osPriqueueInit)
    i.osPriqueueSize                         0x08002404   Section        0  los_priqueue.o(i.osPriqueueSize)
    i.osPriqueueTop                          0x08002428   Section        0  los_priqueue.o(i.osPriqueueTop)
    i.osQueueBufferOperate                   0x08002444   Section        0  los_queue.o(i.osQueueBufferOperate)
    osQueueBufferOperate                     0x08002445   Thumb Code   168  los_queue.o(i.osQueueBufferOperate)
    i.osQueueInit                            0x08002514   Section        0  los_queue.o(i.osQueueInit)
    i.osQueueOperate                         0x08002570   Section        0  los_queue.o(i.osQueueOperate)
    i.osQueueReadParameterCheck              0x080026d8   Section        0  los_queue.o(i.osQueueReadParameterCheck)
    osQueueReadParameterCheck                0x080026d9   Thumb Code    48  los_queue.o(i.osQueueReadParameterCheck)
    i.osQueueWriteParameterCheck             0x0800270c   Section        0  los_queue.o(i.osQueueWriteParameterCheck)
    osQueueWriteParameterCheck               0x0800270d   Thumb Code    46  los_queue.o(i.osQueueWriteParameterCheck)
    i.osSchedule                             0x08002740   Section        0  los_hw.o(i.osSchedule)
    i.osSemInit                              0x08002744   Section        0  los_sem.o(i.osSemInit)
    i.osSlabAllocatorAlloc                   0x08002798   Section        0  los_slab.o(i.osSlabAllocatorAlloc)
    i.osSlabAllocatorFree                    0x080027b4   Section        0  los_slab.o(i.osSlabAllocatorFree)
    i.osSlabAllocatorNew                     0x080027ec   Section        0  los_slab.o(i.osSlabAllocatorNew)
    i.osSlabBlockHeadFill                    0x08002832   Section        0  los_slabmem.o(i.osSlabBlockHeadFill)
    i.osSlabCtrlHdrGet                       0x08002846   Section        0  los_memory.o(i.osSlabCtrlHdrGet)
    i.osSlabMemAlloc                         0x0800284a   Section        0  los_slabmem.o(i.osSlabMemAlloc)
    i.osSlabMemFree                          0x080028ac   Section        0  los_slabmem.o(i.osSlabMemFree)
    i.osSlabMemInit                          0x0800290c   Section        0  los_slabmem.o(i.osSlabMemInit)
    i.osSwTmrInit                            0x08002960   Section        0  los_swtmr.o(i.osSwTmrInit)
    i.osSwTmrStart                           0x080029e0   Section        0  los_swtmr.o(i.osSwTmrStart)
    i.osSwTmrTask                            0x08002b68   Section        0  los_swtmr.o(i.osSwTmrTask)
    i.osSwTmrTaskCreate                      0x08002ba4   Section        0  los_swtmr.o(i.osSwTmrTaskCreate)
    i.osSwTmrTimeoutHandle                   0x08002be4   Section        0  los_swtmr.o(i.osSwTmrTimeoutHandle)
    osSwTmrTimeoutHandle                     0x08002be5   Thumb Code    98  los_swtmr.o(i.osSwTmrTimeoutHandle)
    i.osSwtmrDelete                          0x08002c4c   Section        0  los_swtmr.o(i.osSwtmrDelete)
    osSwtmrDelete                            0x08002c4d   Thumb Code    26  los_swtmr.o(i.osSwtmrDelete)
    i.osSwtmrScan                            0x08002c70   Section        0  los_swtmr.o(i.osSwtmrScan)
    i.osTaskAdd2TimerList                    0x08002c8c   Section        0  los_task.o(i.osTaskAdd2TimerList)
    i.osTaskEntry                            0x08002d10   Section        0  los_task.o(i.osTaskEntry)
    i.osTaskExit                             0x08002d3c   Section        0  los_hw.o(i.osTaskExit)
    i.osTaskInit                             0x08002d40   Section        0  los_task.o(i.osTaskInit)
    i.osTaskMonInit                          0x08002e14   Section        0  los_task.o(i.osTaskMonInit)
    i.osTaskScan                             0x08002e40   Section        0  los_task.o(i.osTaskScan)
    i.osTaskSwitchCheck                      0x08002ef4   Section        0  los_task.o(i.osTaskSwitchCheck)
    i.osTaskWait                             0x08003030   Section        0  los_task.o(i.osTaskWait)
    i.osTaskWake                             0x0800307c   Section        0  los_task.o(i.osTaskWake)
    i.osThreadNew                            0x080030bc   Section        0  cmsis_liteos.o(i.osThreadNew)
    i.osTickHandler                          0x08003120   Section        0  los_tick.o(i.osTickHandler)
    i.osTickStart                            0x08003148   Section        0  los_hw_tick.o(i.osTickStart)
    i.osTimerListDelete                      0x080031b8   Section        0  los_task.o(i.osTimerListDelete)
    i.osTimesliceCheck                       0x080031ec   Section        0  los_timeslice.o(i.osTimesliceCheck)
    i.osTimesliceInit                        0x08003224   Section        0  los_timeslice.o(i.osTimesliceInit)
    i.osTskStackInit                         0x08003234   Section        0  los_hw.o(i.osTskStackInit)
    .constdata                               0x080032b4   Section       72  main.o(.constdata)
    .constdata                               0x080032fc   Section       16  system_stm32f1xx.o(.constdata)
    .constdata                               0x0800330c   Section        8  system_stm32f1xx.o(.constdata)
    .conststring                             0x08003314   Section       21  main.o(.conststring)
    .data                                    0x20000000   Section        8  main.o(.data)
    .data                                    0x20000008   Section       12  stm32f1xx_hal.o(.data)
    .data                                    0x20000014   Section        4  system_stm32f1xx.o(.data)
    .data                                    0x20000018   Section        4  cmsis_liteos.o(.data)
    KernelState                              0x20000018   Data           4  cmsis_liteos.o(.data)
    .data                                    0x2000001c   Section        8  los_priqueue.o(.data)
    g_uwPriQueueBitmap                       0x2000001c   Data           4  los_priqueue.o(.data)
    .data                                    0x20000024   Section       28  los_swtmr.o(.data)
    m_uwSwtimerRousesTime                    0x20000024   Data           4  los_swtmr.o(.data)
    m_pstRouses                              0x20000028   Data           4  los_swtmr.o(.data)
    m_pstRousesPrev                          0x2000002c   Data           4  los_swtmr.o(.data)
    .data                                    0x20000040   Section       72  los_task.o(.data)
    .data                                    0x20000088   Section        4  los_tick.o(.data)
    .data                                    0x20000090   Section       16  los_tick.o(.data)
    .data                                    0x200000a0   Section        4  los_tick.o(.data)
    .data                                    0x200000a4   Section        8  los_timeslice.o(.data)
    .data                                    0x200000ac   Section       12  los_mux.o(.data)
    .data                                    0x200000b8   Section       12  los_queue.o(.data)
    .data                                    0x200000c4   Section       12  los_sem.o(.data)
    .data                                    0x200000d0   Section       16  los_heap.o(.data)
    g_uwAllocCount                           0x200000d0   Data           4  los_heap.o(.data)
    g_uwFreeCount                            0x200000d4   Data           4  los_heap.o(.data)
    g_uwCurHeapUsed                          0x200000d8   Data           4  los_heap.o(.data)
    g_uwMaxHeapUsed                          0x200000dc   Data           4  los_heap.o(.data)
    .data                                    0x200000e0   Section        4  los_memory.o(.data)
    .data                                    0x200000e4   Section        4  los_init.o(.data)
    .data                                    0x200000e8   Section        4  stdout.o(.data)
    .bss                                     0x200000ec   Section       68  usart.o(.bss)
    .bss                                     0x20000130   Section       72  stm32f1xx_hal_timebase_tim.o(.bss)
    .bss                                     0x20000178   Section       64  los_swtmr.o(.bss)
    .bss                                     0x200001b8   Section      342  los_task.o(.bss)
    STACK                                    0x20000310   Section     1024  startup_stm32f103xb.o(STACK)

    Global Symbols

    Symbol Name                              Value     Ov Type        Size  Object(Section)

    BuildAttributes$$THM_ISAv4$P$D$K$B$S$PE$A:L22UL41UL21$X:L11$S22US41US21$IEEE1$IW$USESV6$~STKCKD$USESV7$~SHL$OSPACE$ROPI$EBA8$MICROLIB$REQ8$PRES8$EABIv2 0x00000000   Number         0  anon$$obj.o ABSOLUTE
    __ARM_use_no_argv                        0x00000000   Number         0  main.o ABSOLUTE
    _printf_a                                0x00000000   Number         0  stubs.o ABSOLUTE
    _printf_c                                0x00000000   Number         0  stubs.o ABSOLUTE
    _printf_charcount                        0x00000000   Number         0  stubs.o ABSOLUTE
    _printf_d                                0x00000000   Number         0  stubs.o ABSOLUTE
    _printf_e                                0x00000000   Number         0  stubs.o ABSOLUTE
    _printf_f                                0x00000000   Number         0  stubs.o ABSOLUTE
    _printf_flags                            0x00000000   Number         0  stubs.o ABSOLUTE
    _printf_fp_dec                           0x00000000   Number         0  stubs.o ABSOLUTE
    _printf_fp_hex                           0x00000000   Number         0  stubs.o ABSOLUTE
    _printf_g                                0x00000000   Number         0  stubs.o ABSOLUTE
    _printf_i                                0x00000000   Number         0  stubs.o ABSOLUTE
    _printf_int_dec                          0x00000000   Number         0  stubs.o ABSOLUTE
    _printf_l                                0x00000000   Number         0  stubs.o ABSOLUTE
    _printf_lc                               0x00000000   Number         0  stubs.o ABSOLUTE
    _printf_ll                               0x00000000   Number         0  stubs.o ABSOLUTE
    _printf_lld                              0x00000000   Number         0  stubs.o ABSOLUTE
    _printf_lli                              0x00000000   Number         0  stubs.o ABSOLUTE
    _printf_llo                              0x00000000   Number         0  stubs.o ABSOLUTE
    _printf_llu                              0x00000000   Number         0  stubs.o ABSOLUTE
    _printf_llx                              0x00000000   Number         0  stubs.o ABSOLUTE
    _printf_longlong_dec                     0x00000000   Number         0  stubs.o ABSOLUTE
    _printf_longlong_hex                     0x00000000   Number         0  stubs.o ABSOLUTE
    _printf_longlong_oct                     0x00000000   Number         0  stubs.o ABSOLUTE
    _printf_ls                               0x00000000   Number         0  stubs.o ABSOLUTE
    _printf_mbtowc                           0x00000000   Number         0  stubs.o ABSOLUTE
    _printf_n                                0x00000000   Number         0  stubs.o ABSOLUTE
    _printf_o                                0x00000000   Number         0  stubs.o ABSOLUTE
    _printf_p                                0x00000000   Number         0  stubs.o ABSOLUTE
    _printf_percent                          0x00000000   Number         0  stubs.o ABSOLUTE
    _printf_pre_padding                      0x00000000   Number         0  stubs.o ABSOLUTE
    _printf_return_value                     0x00000000   Number         0  stubs.o ABSOLUTE
    _printf_s                                0x00000000   Number         0  stubs.o ABSOLUTE
    _printf_sizespec                         0x00000000   Number         0  stubs.o ABSOLUTE
    _printf_str                              0x00000000   Number         0  stubs.o ABSOLUTE
    _printf_truncate_signed                  0x00000000   Number         0  stubs.o ABSOLUTE
    _printf_truncate_unsigned                0x00000000   Number         0  stubs.o ABSOLUTE
    _printf_u                                0x00000000   Number         0  stubs.o ABSOLUTE
    _printf_wc                               0x00000000   Number         0  stubs.o ABSOLUTE
    _printf_wctomb                           0x00000000   Number         0  stubs.o ABSOLUTE
    _printf_widthprec                        0x00000000   Number         0  stubs.o ABSOLUTE
    _printf_x                                0x00000000   Number         0  stubs.o ABSOLUTE
    __cpp_initialize__aeabi_                  - Undefined Weak Reference
    __cxa_finalize                            - Undefined Weak Reference
    __decompress                              - Undefined Weak Reference
    _clock_init                               - Undefined Weak Reference
    _microlib_exit                            - Undefined Weak Reference
    __Vectors_Size                           0x000000ec   Number         0  startup_stm32f103xb.o ABSOLUTE
    __Vectors                                0x08000000   Data           4  startup_stm32f103xb.o(RESET)
    __Vectors_End                            0x080000ec   Data           0  startup_stm32f103xb.o(RESET)
    __main                                   0x080000ed   Thumb Code     0  entry.o(.ARM.Collect$$$$00000000)
    _main_stk                                0x080000ed   Thumb Code     0  entry2.o(.ARM.Collect$$$$00000001)
    _main_scatterload                        0x080000f1   Thumb Code     0  entry5.o(.ARM.Collect$$$$00000004)
    __main_after_scatterload                 0x080000f5   Thumb Code     0  entry5.o(.ARM.Collect$$$$00000004)
    _main_clock                              0x080000f5   Thumb Code     0  entry7b.o(.ARM.Collect$$$$00000008)
    _main_cpp_init                           0x080000f5   Thumb Code     0  entry8b.o(.ARM.Collect$$$$0000000A)
    _main_init                               0x080000f5   Thumb Code     0  entry9a.o(.ARM.Collect$$$$0000000B)
    __rt_final_cpp                           0x080000fd   Thumb Code     0  entry10a.o(.ARM.Collect$$$$0000000D)
    __rt_final_exit                          0x080000fd   Thumb Code     0  entry11a.o(.ARM.Collect$$$$0000000F)
    Reset_Handler                            0x08000101   Thumb Code     8  startup_stm32f103xb.o(.text)
    ADC1_2_IRQHandler                        0x0800011b   Thumb Code     0  startup_stm32f103xb.o(.text)
    CAN1_RX1_IRQHandler                      0x0800011b   Thumb Code     0  startup_stm32f103xb.o(.text)
    CAN1_SCE_IRQHandler                      0x0800011b   Thumb Code     0  startup_stm32f103xb.o(.text)
    DMA1_Channel1_IRQHandler                 0x0800011b   Thumb Code     0  startup_stm32f103xb.o(.text)
    DMA1_Channel2_IRQHandler                 0x0800011b   Thumb Code     0  startup_stm32f103xb.o(.text)
    DMA1_Channel3_IRQHandler                 0x0800011b   Thumb Code     0  startup_stm32f103xb.o(.text)
    DMA1_Channel4_IRQHandler                 0x0800011b   Thumb Code     0  startup_stm32f103xb.o(.text)
    DMA1_Channel5_IRQHandler                 0x0800011b   Thumb Code     0  startup_stm32f103xb.o(.text)
    DMA1_Channel6_IRQHandler                 0x0800011b   Thumb Code     0  startup_stm32f103xb.o(.text)
    DMA1_Channel7_IRQHandler                 0x0800011b   Thumb Code     0  startup_stm32f103xb.o(.text)
    EXTI0_IRQHandler                         0x0800011b   Thumb Code     0  startup_stm32f103xb.o(.text)
    EXTI15_10_IRQHandler                     0x0800011b   Thumb Code     0  startup_stm32f103xb.o(.text)
    EXTI1_IRQHandler                         0x0800011b   Thumb Code     0  startup_stm32f103xb.o(.text)
    EXTI2_IRQHandler                         0x0800011b   Thumb Code     0  startup_stm32f103xb.o(.text)
    EXTI3_IRQHandler                         0x0800011b   Thumb Code     0  startup_stm32f103xb.o(.text)
    EXTI4_IRQHandler                         0x0800011b   Thumb Code     0  startup_stm32f103xb.o(.text)
    EXTI9_5_IRQHandler                       0x0800011b   Thumb Code     0  startup_stm32f103xb.o(.text)
    FLASH_IRQHandler                         0x0800011b   Thumb Code     0  startup_stm32f103xb.o(.text)
    I2C1_ER_IRQHandler                       0x0800011b   Thumb Code     0  startup_stm32f103xb.o(.text)
    I2C1_EV_IRQHandler                       0x0800011b   Thumb Code     0  startup_stm32f103xb.o(.text)
    I2C2_ER_IRQHandler                       0x0800011b   Thumb Code     0  startup_stm32f103xb.o(.text)
    I2C2_EV_IRQHandler                       0x0800011b   Thumb Code     0  startup_stm32f103xb.o(.text)
    PVD_IRQHandler                           0x0800011b   Thumb Code     0  startup_stm32f103xb.o(.text)
    RCC_IRQHandler                           0x0800011b   Thumb Code     0  startup_stm32f103xb.o(.text)
    RTC_Alarm_IRQHandler                     0x0800011b   Thumb Code     0  startup_stm32f103xb.o(.text)
    RTC_IRQHandler                           0x0800011b   Thumb Code     0  startup_stm32f103xb.o(.text)
    SPI1_IRQHandler                          0x0800011b   Thumb Code     0  startup_stm32f103xb.o(.text)
    SPI2_IRQHandler                          0x0800011b   Thumb Code     0  startup_stm32f103xb.o(.text)
    TAMPER_IRQHandler                        0x0800011b   Thumb Code     0  startup_stm32f103xb.o(.text)
    TIM1_BRK_IRQHandler                      0x0800011b   Thumb Code     0  startup_stm32f103xb.o(.text)
    TIM1_CC_IRQHandler                       0x0800011b   Thumb Code     0  startup_stm32f103xb.o(.text)
    TIM1_TRG_COM_IRQHandler                  0x0800011b   Thumb Code     0  startup_stm32f103xb.o(.text)
    TIM1_UP_IRQHandler                       0x0800011b   Thumb Code     0  startup_stm32f103xb.o(.text)
    TIM2_IRQHandler                          0x0800011b   Thumb Code     0  startup_stm32f103xb.o(.text)
    TIM3_IRQHandler                          0x0800011b   Thumb Code     0  startup_stm32f103xb.o(.text)
    USART1_IRQHandler                        0x0800011b   Thumb Code     0  startup_stm32f103xb.o(.text)
    USART2_IRQHandler                        0x0800011b   Thumb Code     0  startup_stm32f103xb.o(.text)
    USART3_IRQHandler                        0x0800011b   Thumb Code     0  startup_stm32f103xb.o(.text)
    USBWakeUp_IRQHandler                     0x0800011b   Thumb Code     0  startup_stm32f103xb.o(.text)
    USB_HP_CAN1_TX_IRQHandler                0x0800011b   Thumb Code     0  startup_stm32f103xb.o(.text)
    USB_LP_CAN1_RX0_IRQHandler               0x0800011b   Thumb Code     0  startup_stm32f103xb.o(.text)
    WWDG_IRQHandler                          0x0800011b   Thumb Code     0  startup_stm32f103xb.o(.text)
    LOS_StartToRun                           0x08000125   Thumb Code     0  los_dispatch_keil.o(.text)
    LOS_IntLock                              0x0800016d   Thumb Code     0  los_dispatch_keil.o(.text)
    LOS_IntUnLock                            0x08000175   Thumb Code     0  los_dispatch_keil.o(.text)
    LOS_IntRestore                           0x0800017d   Thumb Code     0  los_dispatch_keil.o(.text)
    osTaskSchedule                           0x08000183   Thumb Code     0  los_dispatch_keil.o(.text)
    PendSV_Handler                           0x0800018d   Thumb Code     0  los_dispatch_keil.o(.text)
    __aeabi_uldivmod                         0x080001f1   Thumb Code    98  uldiv.o(.text)
    __aeabi_llsr                             0x08000253   Thumb Code    32  llushr.o(.text)
    _ll_ushift_r                             0x08000253   Thumb Code     0  llushr.o(.text)
    __aeabi_memcpy                           0x08000273   Thumb Code    36  memcpya.o(.text)
    __aeabi_memcpy4                          0x08000273   Thumb Code     0  memcpya.o(.text)
    __aeabi_memcpy8                          0x08000273   Thumb Code     0  memcpya.o(.text)
    __aeabi_memset                           0x08000297   Thumb Code    14  memseta.o(.text)
    __aeabi_memset4                          0x08000297   Thumb Code     0  memseta.o(.text)
    __aeabi_memset8                          0x08000297   Thumb Code     0  memseta.o(.text)
    __aeabi_memclr                           0x080002a5   Thumb Code     4  memseta.o(.text)
    __aeabi_memclr4                          0x080002a5   Thumb Code     0  memseta.o(.text)
    __aeabi_memclr8                          0x080002a5   Thumb Code     0  memseta.o(.text)
    _memset$wrapper                          0x080002a9   Thumb Code    18  memseta.o(.text)
    __aeabi_llsl                             0x080002bb   Thumb Code    30  llshl.o(.text)
    _ll_shift_l                              0x080002bb   Thumb Code     0  llshl.o(.text)
    __scatterload                            0x080002d9   Thumb Code    28  init.o(.text)
    __scatterload_rt2                        0x080002d9   Thumb Code     0  init.o(.text)
    BusFault_Handler                         0x080002fd   Thumb Code     2  stm32f1xx_it.o(i.BusFault_Handler)
    __I$use$semihosting$fputc                0x080002fd   Thumb Code     0  iusesemip.o(.text)
    __semihosting_library_function           0x080002fd   Thumb Code     0  semi.o(.text)
    DebugMon_Handler                         0x080002ff   Thumb Code     2  stm32f1xx_it.o(i.DebugMon_Handler)
    Error_Handler                            0x08000301   Thumb Code     4  main.o(i.Error_Handler)
    HAL_GPIO_Init                            0x08000305   Thumb Code   446  stm32f1xx_hal_gpio.o(i.HAL_GPIO_Init)
    HAL_GPIO_TogglePin                       0x080004e5   Thumb Code    16  stm32f1xx_hal_gpio.o(i.HAL_GPIO_TogglePin)
    HAL_GPIO_WritePin                        0x080004f5   Thumb Code    10  stm32f1xx_hal_gpio.o(i.HAL_GPIO_WritePin)
    HAL_GetTick                              0x08000501   Thumb Code     6  stm32f1xx_hal.o(i.HAL_GetTick)
    HAL_IncTick                              0x0800050d   Thumb Code    12  stm32f1xx_hal.o(i.HAL_IncTick)
    HAL_Init                                 0x0800051d   Thumb Code    32  stm32f1xx_hal.o(i.HAL_Init)
    HAL_InitTick                             0x08000541   Thumb Code   100  stm32f1xx_hal_timebase_tim.o(i.HAL_InitTick)
    HAL_MspInit                              0x080005b5   Thumb Code    52  stm32f1xx_hal_msp.o(i.HAL_MspInit)
    HAL_NVIC_EnableIRQ                       0x080005f1   Thumb Code    26  stm32f1xx_hal_cortex.o(i.HAL_NVIC_EnableIRQ)
    HAL_NVIC_SetPriority                     0x0800060d   Thumb Code    60  stm32f1xx_hal_cortex.o(i.HAL_NVIC_SetPriority)
    HAL_NVIC_SetPriorityGrouping             0x0800064d   Thumb Code    26  stm32f1xx_hal_cortex.o(i.HAL_NVIC_SetPriorityGrouping)
    HAL_RCC_ClockConfig                      0x08000671   Thumb Code   280  stm32f1xx_hal_rcc.o(i.HAL_RCC_ClockConfig)
    HAL_RCC_GetClockConfig                   0x0800079d   Thumb Code    54  stm32f1xx_hal_rcc.o(i.HAL_RCC_GetClockConfig)
    HAL_RCC_GetPCLK1Freq                     0x080007dd   Thumb Code    20  stm32f1xx_hal_rcc.o(i.HAL_RCC_GetPCLK1Freq)
    HAL_RCC_GetPCLK2Freq                     0x080007fd   Thumb Code    20  stm32f1xx_hal_rcc.o(i.HAL_RCC_GetPCLK2Freq)
    HAL_RCC_GetSysClockFreq                  0x0800081d   Thumb Code    74  stm32f1xx_hal_rcc.o(i.HAL_RCC_GetSysClockFreq)
    HAL_RCC_OscConfig                        0x08000889   Thumb Code   778  stm32f1xx_hal_rcc.o(i.HAL_RCC_OscConfig)
    HAL_TIMEx_BreakCallback                  0x08000ba9   Thumb Code     2  stm32f1xx_hal_tim_ex.o(i.HAL_TIMEx_BreakCallback)
    HAL_TIMEx_CommutCallback                 0x08000bab   Thumb Code     2  stm32f1xx_hal_tim_ex.o(i.HAL_TIMEx_CommutCallback)
    HAL_TIM_Base_Init                        0x08000bad   Thumb Code    90  stm32f1xx_hal_tim.o(i.HAL_TIM_Base_Init)
    HAL_TIM_Base_MspInit                     0x08000c07   Thumb Code     2  stm32f1xx_hal_tim.o(i.HAL_TIM_Base_MspInit)
    HAL_TIM_Base_Start_IT                    0x08000c09   Thumb Code    76  stm32f1xx_hal_tim.o(i.HAL_TIM_Base_Start_IT)
    HAL_TIM_IC_CaptureCallback               0x08000c61   Thumb Code     2  stm32f1xx_hal_tim.o(i.HAL_TIM_IC_CaptureCallback)
    HAL_TIM_IRQHandler                       0x08000c63   Thumb Code   358  stm32f1xx_hal_tim.o(i.HAL_TIM_IRQHandler)
    HAL_TIM_OC_DelayElapsedCallback          0x08000dc9   Thumb Code     2  stm32f1xx_hal_tim.o(i.HAL_TIM_OC_DelayElapsedCallback)
    HAL_TIM_PWM_PulseFinishedCallback        0x08000dcb   Thumb Code     2  stm32f1xx_hal_tim.o(i.HAL_TIM_PWM_PulseFinishedCallback)
    HAL_TIM_PeriodElapsedCallback            0x08000dcd   Thumb Code    14  main.o(i.HAL_TIM_PeriodElapsedCallback)
    HAL_TIM_TriggerCallback                  0x08000de1   Thumb Code     2  stm32f1xx_hal_tim.o(i.HAL_TIM_TriggerCallback)
    HAL_UART_Init                            0x08000de3   Thumb Code    98  stm32f1xx_hal_uart.o(i.HAL_UART_Init)
    HAL_UART_MspInit                         0x08000e45   Thumb Code   102  usart.o(i.HAL_UART_MspInit)
    HardFault_Handler                        0x08000eb9   Thumb Code     2  stm32f1xx_it.o(i.HardFault_Handler)
    LED0TaskEntry                            0x08000ebd   Thumb Code    26  main.o(i.LED0TaskEntry)
    LED1TaskEntry                            0x08000edd   Thumb Code    22  main.o(i.LED1TaskEntry)
    LOS_Align                                0x08000ef9   Thumb Code    20  los_misc.o(i.LOS_Align)
    LOS_KernelInit                           0x08000f0d   Thumb Code   130  los_init.o(i.LOS_KernelInit)
    LOS_MemAlloc                             0x0800104f   Thumb Code    40  los_memory.o(i.LOS_MemAlloc)
    LOS_MemAllocAlign                        0x08001077   Thumb Code     4  los_memory.o(i.LOS_MemAllocAlign)
    LOS_MemFree                              0x0800107b   Thumb Code    38  los_memory.o(i.LOS_MemFree)
    LOS_MemInit                              0x080010a1   Thumb Code   160  los_memory.o(i.LOS_MemInit)
    LOS_QueueCreate                          0x0800117d   Thumb Code   182  los_queue.o(i.LOS_QueueCreate)
    LOS_QueueReadCopy                        0x08001241   Thumb Code    34  los_queue.o(i.LOS_QueueReadCopy)
    LOS_QueueWriteCopy                       0x08001263   Thumb Code    38  los_queue.o(i.LOS_QueueWriteCopy)
    LOS_Schedule                             0x08001289   Thumb Code    54  los_hw.o(i.LOS_Schedule)
    LOS_Start                                0x080012c9   Thumb Code    32  los_init.o(i.LOS_Start)
    LOS_TaskCreate                           0x08001305   Thumb Code   106  los_task.o(i.LOS_TaskCreate)
    LOS_TaskCreateOnly                       0x08001375   Thumb Code   310  los_task.o(i.LOS_TaskCreateOnly)
    LOS_TaskDelay                            0x080014c5   Thumb Code    94  los_task.o(i.LOS_TaskDelay)
    LOS_TaskDelete                           0x08001531   Thumb Code   298  los_task.o(i.LOS_TaskDelete)
    LOS_TaskYield                            0x08001669   Thumb Code   102  los_task.o(i.LOS_TaskYield)
    LOS_TickCountGet                         0x080016d9   Thumb Code     8  los_sys.o(i.LOS_TickCountGet)
    MX_GPIO_Init                             0x080016e5   Thumb Code   122  gpio.o(i.MX_GPIO_Init)
    MX_USART1_UART_Init                      0x0800176d   Thumb Code    48  usart.o(i.MX_USART1_UART_Init)
    MemManage_Handler                        0x080017a5   Thumb Code     2  stm32f1xx_it.o(i.MemManage_Handler)
    NMI_Handler                              0x080017a7   Thumb Code     2  stm32f1xx_it.o(i.NMI_Handler)
    SVC_Handler                              0x080017a9   Thumb Code     2  stm32f1xx_it.o(i.SVC_Handler)
    SysTick_Handler                          0x080017ad   Thumb Code    28  los_hwi.o(i.SysTick_Handler)
    SystemClock_Config                       0x080017d1   Thumb Code    94  main.o(i.SystemClock_Config)
    SystemInit                               0x0800182f   Thumb Code     2  system_stm32f1xx.o(i.SystemInit)
    TIM4_IRQHandler                          0x08001831   Thumb Code     6  stm32f1xx_it.o(i.TIM4_IRQHandler)
    TIM_Base_SetConfig                       0x0800183d   Thumb Code    94  stm32f1xx_hal_tim.o(i.TIM_Base_SetConfig)
    UsageFault_Handler                       0x08001961   Thumb Code     2  stm32f1xx_it.o(i.UsageFault_Handler)
    __0printf$8                              0x08001965   Thumb Code    22  printf8.o(i.__0printf$8)
    __1printf$8                              0x08001965   Thumb Code     0  printf8.o(i.__0printf$8)
    __2printf                                0x08001965   Thumb Code     0  printf8.o(i.__0printf$8)
    __scatterload_copy                       0x080019a5   Thumb Code    14  handlers.o(i.__scatterload_copy)
    __scatterload_null                       0x080019b3   Thumb Code     2  handlers.o(i.__scatterload_null)
    __scatterload_zeroinit                   0x080019b5   Thumb Code    14  handlers.o(i.__scatterload_zeroinit)
    fputc                                    0x08001e27   Thumb Code    18  fputc.o(i.fputc)
    main                                     0x08001e39   Thumb Code    54  main.o(i.main)
    osAlarmHeapInfo                          0x08001e81   Thumb Code    26  los_heap.o(i.osAlarmHeapInfo)
    osAtomicBitsetClearBit                   0x08001e9b   Thumb Code    30  los_slab.o(i.osAtomicBitsetClearBit)
    osAtomicBitsetFindClearAndSet            0x08001eb9   Thumb Code    66  los_slab.o(i.osAtomicBitsetFindClearAndSet)
    osAtomicBitsetGetBit                     0x08001efb   Thumb Code    34  los_slab.o(i.osAtomicBitsetGetBit)
    osAtomicBitsetInit                       0x08001f1d   Thumb Code    44  los_slab.o(i.osAtomicBitsetInit)
    osDelay                                  0x08001f49   Thumb Code    16  cmsis_liteos.o(i.osDelay)
    osHeapAlloc                              0x08001f59   Thumb Code   228  los_heap.o(i.osHeapAlloc)
    osHeapAllocAlign                         0x08002079   Thumb Code    58  los_heap.o(i.osHeapAllocAlign)
    osHeapFree                               0x080020b5   Thumb Code   226  los_heap.o(i.osHeapFree)
    osHeapInit                               0x080021b9   Thumb Code    58  los_heap.o(i.osHeapInit)
    osHeapPrvGetNext                         0x080021f3   Thumb Code    22  los_heap.o(i.osHeapPrvGetNext)
    osHeapStatisticsGet                      0x08002209   Thumb Code    66  los_heap.o(i.osHeapStatisticsGet)
    osIdleTask                               0x08002251   Thumb Code     2  los_task.o(i.osIdleTask)
    osIdleTaskCreate                         0x08002255   Thumb Code    44  los_task.o(i.osIdleTaskCreate)
    osIntNumGet                              0x08002295   Thumb Code     6  los_hwi.o(i.osIntNumGet)
    osKernelInitialize                       0x0800229d   Thumb Code    42  cmsis_liteos.o(i.osKernelInitialize)
    osKernelStart                            0x080022cd   Thumb Code    44  cmsis_liteos.o(i.osKernelStart)
    osMemSystemInit                          0x080022fd   Thumb Code    10  los_memory.o(i.osMemSystemInit)
    osMuxInit                                0x08002311   Thumb Code    74  los_mux.o(i.osMuxInit)
    osPriqueueDequeue                        0x08002369   Thumb Code    50  los_priqueue.o(i.osPriqueueDequeue)
    osPriqueueEnqueue                        0x080023a1   Thumb Code    44  los_priqueue.o(i.osPriqueueEnqueue)
    osPriqueueInit                           0x080023d1   Thumb Code    42  los_priqueue.o(i.osPriqueueInit)
    osPriqueueSize                           0x08002405   Thumb Code    30  los_priqueue.o(i.osPriqueueSize)
    osPriqueueTop                            0x08002429   Thumb Code    24  los_priqueue.o(i.osPriqueueTop)
    osQueueInit                              0x08002515   Thumb Code    80  los_queue.o(i.osQueueInit)
    osQueueOperate                           0x08002571   Thumb Code   342  los_queue.o(i.osQueueOperate)
    osSchedule                               0x08002741   Thumb Code     4  los_hw.o(i.osSchedule)
    osSemInit                                0x08002745   Thumb Code    72  los_sem.o(i.osSemInit)
    osSlabAllocatorAlloc                     0x08002799   Thumb Code    28  los_slab.o(i.osSlabAllocatorAlloc)
    osSlabAllocatorFree                      0x080027b5   Thumb Code    56  los_slab.o(i.osSlabAllocatorFree)
    osSlabAllocatorNew                       0x080027ed   Thumb Code    70  los_slab.o(i.osSlabAllocatorNew)
    osSlabBlockHeadFill                      0x08002833   Thumb Code    20  los_slabmem.o(i.osSlabBlockHeadFill)
    osSlabCtrlHdrGet                         0x08002847   Thumb Code     4  los_memory.o(i.osSlabCtrlHdrGet)
    osSlabMemAlloc                           0x0800284b   Thumb Code    98  los_slabmem.o(i.osSlabMemAlloc)
    osSlabMemFree                            0x080028ad   Thumb Code    94  los_slabmem.o(i.osSlabMemFree)
    osSlabMemInit                            0x0800290d   Thumb Code    82  los_slabmem.o(i.osSlabMemInit)
    osSwTmrInit                              0x08002961   Thumb Code   112  los_swtmr.o(i.osSwTmrInit)
    osSwTmrStart                             0x080029e1   Thumb Code   382  los_swtmr.o(i.osSwTmrStart)
    osSwTmrTask                              0x08002b69   Thumb Code    56  los_swtmr.o(i.osSwTmrTask)
    osSwTmrTaskCreate                        0x08002ba5   Thumb Code    44  los_swtmr.o(i.osSwTmrTaskCreate)
    osSwtmrScan                              0x08002c71   Thumb Code    24  los_swtmr.o(i.osSwtmrScan)
    osTaskAdd2TimerList                      0x08002c8d   Thumb Code   126  los_task.o(i.osTaskAdd2TimerList)
    osTaskEntry                              0x08002d11   Thumb Code    38  los_task.o(i.osTaskEntry)
    osTaskExit                               0x08002d3d   Thumb Code     4  los_hw.o(i.osTaskExit)
    osTaskInit                               0x08002d41   Thumb Code   200  los_task.o(i.osTaskInit)
    osTaskMonInit                            0x08002e15   Thumb Code    30  los_task.o(i.osTaskMonInit)
    osTaskScan                               0x08002e41   Thumb Code   174  los_task.o(i.osTaskScan)
    osTaskSwitchCheck                        0x08002ef5   Thumb Code   170  los_task.o(i.osTaskSwitchCheck)
    osTaskWait                               0x08003031   Thumb Code    70  los_task.o(i.osTaskWait)
    osTaskWake                               0x0800307d   Thumb Code    64  los_task.o(i.osTaskWake)
    osThreadNew                              0x080030bd   Thumb Code    94  cmsis_liteos.o(i.osThreadNew)
    osTickHandler                            0x08003121   Thumb Code    34  los_tick.o(i.osTickHandler)
    osTickStart                              0x08003149   Thumb Code    86  los_hw_tick.o(i.osTickStart)
    osTimerListDelete                        0x080031b9   Thumb Code    48  los_task.o(i.osTimerListDelete)
    osTimesliceCheck                         0x080031ed   Thumb Code    44  los_timeslice.o(i.osTimesliceCheck)
    osTimesliceInit                          0x08003225   Thumb Code    12  los_timeslice.o(i.osTimesliceInit)
    osTskStackInit                           0x08003235   Thumb Code   120  los_hw.o(i.osTskStackInit)
    LED0Task_attributes                      0x080032b4   Data          36  main.o(.constdata)
    LED1Task_attributes                      0x080032d8   Data          36  main.o(.constdata)
    AHBPrescTable                            0x080032fc   Data          16  system_stm32f1xx.o(.constdata)
    APBPrescTable                            0x0800330c   Data           8  system_stm32f1xx.o(.constdata)
    Region$$Table$$Base                      0x0800332c   Number         0  anon$$obj.o(Region$$Table)
    Region$$Table$$Limit                     0x0800334c   Number         0  anon$$obj.o(Region$$Table)
    LED0TaskHandle                           0x20000000   Data           4  main.o(.data)
    LED1TaskHandle                           0x20000004   Data           4  main.o(.data)
    uwTickFreq                               0x20000008   Data           1  stm32f1xx_hal.o(.data)
    uwTickPrio                               0x2000000c   Data           4  stm32f1xx_hal.o(.data)
    uwTick                                   0x20000010   Data           4  stm32f1xx_hal.o(.data)
    SystemCoreClock                          0x20000014   Data           4  system_stm32f1xx.o(.data)
    g_pstLosPriorityQueueList                0x20000020   Data           4  los_priqueue.o(.data)
    m_uwSwTmrHandlerQueue                    0x20000030   Data           4  los_swtmr.o(.data)
    m_pstSwtmrCBArray                        0x20000034   Data           4  los_swtmr.o(.data)
    m_pstSwtmrFreeList                       0x20000038   Data           4  los_swtmr.o(.data)
    m_pstSwtmrSortList                       0x2000003c   Data           4  los_swtmr.o(.data)
    g_usLosTaskLock                          0x20000040   Data           2  los_task.o(.data)
    g_pfnTskSwitchHook                       0x20000044   Data           4  los_task.o(.data)
    g_pfnUsrTskSwitchHook                    0x20000048   Data           4  los_task.o(.data)
    g_pstTaskCBArray                         0x2000004c   Data           4  los_task.o(.data)
    g_uwTskMaxNum                            0x20000050   Data           4  los_task.o(.data)
    g_uwIdleTaskID                           0x20000054   Data           4  los_task.o(.data)
    g_uwSwtmrTaskID                          0x20000058   Data           4  los_task.o(.data)
    g_bTaskScheduled                         0x2000005c   Data           4  los_task.o(.data)
    g_stLosTask                              0x20000060   Data           8  los_task.o(.data)
    g_stTaskTimerList                        0x20000068   Data           8  los_task.o(.data)
    g_stLosFreeTask                          0x20000070   Data           8  los_task.o(.data)
    g_stTskRecyleList                        0x20000078   Data           8  los_task.o(.data)
    g_stTskSortLink                          0x20000080   Data           8  los_task.o(.data)
    g_bSysTickStart                          0x20000088   Data           4  los_tick.o(.data)
    g_uwSysClock                             0x20000090   Data           4  los_tick.o(.data)
    g_ullTickCount                           0x20000098   Data           8  los_tick.o(.data)
    g_uwCyclesPerTick                        0x200000a0   Data           4  los_tick.o(.data)
    g_stTaskTimeSlice                        0x200000a4   Data           8  los_timeslice.o(.data)
    g_pstAllMux                              0x200000ac   Data           4  los_mux.o(.data)
    g_stUnusedMuxList                        0x200000b0   Data           8  los_mux.o(.data)
    g_pstAllQueue                            0x200000b8   Data           4  los_queue.o(.data)
    g_stFreeQueueList                        0x200000bc   Data           8  los_queue.o(.data)
    g_pstAllSem                              0x200000c4   Data           4  los_sem.o(.data)
    g_stUnusedSemList                        0x200000c8   Data           8  los_sem.o(.data)
    g_pPoolHead                              0x200000e0   Data           4  los_memory.o(.data)
    m_aucSysMem0                             0x200000e4   Data           4  los_init.o(.data)
    __stdout                                 0x200000e8   Data           4  stdout.o(.data)
    huart1                                   0x200000ec   Data          68  usart.o(.bss)
    htim4                                    0x20000130   Data          72  stm32f1xx_hal_timebase_tim.o(.bss)
    m_uwSwTmrAlignID                         0x20000178   Data          64  los_swtmr.o(.bss)
    g_astTskSwitchInfo                       0x200001b8   Data         342  los_task.o(.bss)
    Image$$RW_IRAM1$$ZI$$Limit               0x20000710   Number         0  anon$$obj.o ABSOLUTE
    __initial_sp                             0x20000710   Data           0  startup_stm32f103xb.o(STACK)



==============================================================================

Memory Map of the image

  Image Entry point : 0x080000ed

  Load Region LR_IROM1 (Base: 0x08000000, Size: 0x00003438, Max: 0x00020000, ABSOLUTE)

    Execution Region ER_IROM1 (Exec base: 0x08000000, Load base: 0x08000000, Size: 0x0000334c, Max: 0x00020000, ABSOLUTE)

    Exec Addr    Load Addr    Size         Type   Attr      Idx    E Section Name        Object

    0x08000000   0x08000000   0x000000ec   Data   RO            3    RESET               startup_stm32f103xb.o
    0x080000ec   0x080000ec   0x00000000   Code   RO         5053  * .ARM.Collect$$$$00000000  mc_w.l(entry.o)
    0x080000ec   0x080000ec   0x00000004   Code   RO         5337    .ARM.Collect$$$$00000001  mc_w.l(entry2.o)
    0x080000f0   0x080000f0   0x00000004   Code   RO         5340    .ARM.Collect$$$$00000004  mc_w.l(entry5.o)
    0x080000f4   0x080000f4   0x00000000   Code   RO         5342    .ARM.Collect$$$$00000008  mc_w.l(entry7b.o)
    0x080000f4   0x080000f4   0x00000000   Code   RO         5344    .ARM.Collect$$$$0000000A  mc_w.l(entry8b.o)
    0x080000f4   0x080000f4   0x00000008   Code   RO         5345    .ARM.Collect$$$$0000000B  mc_w.l(entry9a.o)
    0x080000fc   0x080000fc   0x00000000   Code   RO         5347    .ARM.Collect$$$$0000000D  mc_w.l(entry10a.o)
    0x080000fc   0x080000fc   0x00000000   Code   RO         5349    .ARM.Collect$$$$0000000F  mc_w.l(entry11a.o)
    0x080000fc   0x080000fc   0x00000004   Code   RO         5338    .ARM.Collect$$$$00002712  mc_w.l(entry2.o)
    0x08000100   0x08000100   0x00000024   Code   RO            4    .text               startup_stm32f103xb.o
    0x08000124   0x08000124   0x000000cc   Code   RO         2778    .text               los_dispatch_keil.o
    0x080001f0   0x080001f0   0x00000062   Code   RO         5056    .text               mc_w.l(uldiv.o)
    0x08000252   0x08000252   0x00000020   Code   RO         5058    .text               mc_w.l(llushr.o)
    0x08000272   0x08000272   0x00000024   Code   RO         5060    .text               mc_w.l(memcpya.o)
    0x08000296   0x08000296   0x00000024   Code   RO         5062    .text               mc_w.l(memseta.o)
    0x080002ba   0x080002ba   0x0000001e   Code   RO         5356    .text               mc_w.l(llshl.o)
    0x080002d8   0x080002d8   0x00000024   Code   RO         5367    .text               mc_w.l(init.o)
    0x080002fc   0x080002fc   0x00000000   Code   RO         5369    .text               mc_w.l(semi.o)
    0x080002fc   0x080002fc   0x00000000   Code   RO         5372    .text               mc_w.l(iusesemip.o)
    0x080002fc   0x080002fc   0x00000002   Code   RO          269    i.BusFault_Handler  stm32f1xx_it.o
    0x080002fe   0x080002fe   0x00000002   Code   RO          270    i.DebugMon_Handler  stm32f1xx_it.o
    0x08000300   0x08000300   0x00000004   Code   RO           13    i.Error_Handler     main.o
    0x08000304   0x08000304   0x000001e0   Code   RO         2083    i.HAL_GPIO_Init     stm32f1xx_hal_gpio.o
    0x080004e4   0x080004e4   0x00000010   Code   RO         2086    i.HAL_GPIO_TogglePin  stm32f1xx_hal_gpio.o
    0x080004f4   0x080004f4   0x0000000a   Code   RO         2087    i.HAL_GPIO_WritePin  stm32f1xx_hal_gpio.o
    0x080004fe   0x080004fe   0x00000002   PAD
    0x08000500   0x08000500   0x0000000c   Code   RO         1779    i.HAL_GetTick       stm32f1xx_hal.o
    0x0800050c   0x0800050c   0x00000010   Code   RO         1785    i.HAL_IncTick       stm32f1xx_hal.o
    0x0800051c   0x0800051c   0x00000024   Code   RO         1786    i.HAL_Init          stm32f1xx_hal.o
    0x08000540   0x08000540   0x00000074   Code   RO          363    i.HAL_InitTick      stm32f1xx_hal_timebase_tim.o
    0x080005b4   0x080005b4   0x0000003c   Code   RO          339    i.HAL_MspInit       stm32f1xx_hal_msp.o
    0x080005f0   0x080005f0   0x0000001a   Code   RO         2243    i.HAL_NVIC_EnableIRQ  stm32f1xx_hal_cortex.o
    0x0800060a   0x0800060a   0x00000002   PAD
    0x0800060c   0x0800060c   0x00000040   Code   RO         2249    i.HAL_NVIC_SetPriority  stm32f1xx_hal_cortex.o
    0x0800064c   0x0800064c   0x00000024   Code   RO         2250    i.HAL_NVIC_SetPriorityGrouping  stm32f1xx_hal_cortex.o
    0x08000670   0x08000670   0x0000012c   Code   RO         1943    i.HAL_RCC_ClockConfig  stm32f1xx_hal_rcc.o
    0x0800079c   0x0800079c   0x00000040   Code   RO         1947    i.HAL_RCC_GetClockConfig  stm32f1xx_hal_rcc.o
    0x080007dc   0x080007dc   0x00000020   Code   RO         1950    i.HAL_RCC_GetPCLK1Freq  stm32f1xx_hal_rcc.o
    0x080007fc   0x080007fc   0x00000020   Code   RO         1951    i.HAL_RCC_GetPCLK2Freq  stm32f1xx_hal_rcc.o
    0x0800081c   0x0800081c   0x0000006c   Code   RO         1952    i.HAL_RCC_GetSysClockFreq  stm32f1xx_hal_rcc.o
    0x08000888   0x08000888   0x00000320   Code   RO         1955    i.HAL_RCC_OscConfig  stm32f1xx_hal_rcc.o
    0x08000ba8   0x08000ba8   0x00000002   Code   RO         1144    i.HAL_TIMEx_BreakCallback  stm32f1xx_hal_tim_ex.o
    0x08000baa   0x08000baa   0x00000002   Code   RO         1145    i.HAL_TIMEx_CommutCallback  stm32f1xx_hal_tim_ex.o
    0x08000bac   0x08000bac   0x0000005a   Code   RO          440    i.HAL_TIM_Base_Init  stm32f1xx_hal_tim.o
    0x08000c06   0x08000c06   0x00000002   Code   RO          442    i.HAL_TIM_Base_MspInit  stm32f1xx_hal_tim.o
    0x08000c08   0x08000c08   0x00000058   Code   RO          445    i.HAL_TIM_Base_Start_IT  stm32f1xx_hal_tim.o
    0x08000c60   0x08000c60   0x00000002   Code   RO          474    i.HAL_TIM_IC_CaptureCallback  stm32f1xx_hal_tim.o
    0x08000c62   0x08000c62   0x00000166   Code   RO          488    i.HAL_TIM_IRQHandler  stm32f1xx_hal_tim.o
    0x08000dc8   0x08000dc8   0x00000002   Code   RO          491    i.HAL_TIM_OC_DelayElapsedCallback  stm32f1xx_hal_tim.o
    0x08000dca   0x08000dca   0x00000002   Code   RO          518    i.HAL_TIM_PWM_PulseFinishedCallback  stm32f1xx_hal_tim.o
    0x08000dcc   0x08000dcc   0x00000014   Code   RO           14    i.HAL_TIM_PeriodElapsedCallback  main.o
    0x08000de0   0x08000de0   0x00000002   Code   RO          531    i.HAL_TIM_TriggerCallback  stm32f1xx_hal_tim.o
    0x08000de2   0x08000de2   0x00000062   Code   RO         1440    i.HAL_UART_Init     stm32f1xx_hal_uart.o
    0x08000e44   0x08000e44   0x00000074   Code   RO          228    i.HAL_UART_MspInit  usart.o
    0x08000eb8   0x08000eb8   0x00000002   Code   RO          271    i.HardFault_Handler  stm32f1xx_it.o
    0x08000eba   0x08000eba   0x00000002   PAD
    0x08000ebc   0x08000ebc   0x00000020   Code   RO           15    i.LED0TaskEntry     main.o
    0x08000edc   0x08000edc   0x0000001c   Code   RO           16    i.LED1TaskEntry     main.o
    0x08000ef8   0x08000ef8   0x00000014   Code   RO         4913    i.LOS_Align         los_misc.o
    0x08000f0c   0x08000f0c   0x000000f0   Code   RO         5007    i.LOS_KernelInit    los_init.o
    0x08000ffc   0x08000ffc   0x0000000e   Code   RO         3748    i.LOS_ListAdd       los_task.o
    0x0800100a   0x0800100a   0x0000000e   Code   RO         4190    i.LOS_ListAdd       los_mux.o
    0x08001018   0x08001018   0x0000000e   Code   RO         4255    i.LOS_ListAdd       los_queue.o
    0x08001026   0x08001026   0x0000000e   Code   RO         4386    i.LOS_ListAdd       los_sem.o
    0x08001034   0x08001034   0x00000014   Code   RO         3749    i.LOS_ListDelete    los_task.o
    0x08001048   0x08001048   0x00000006   Code   RO         3750    i.LOS_ListTailInsert  los_task.o
    0x0800104e   0x0800104e   0x00000028   Code   RO         4532    i.LOS_MemAlloc      los_memory.o
    0x08001076   0x08001076   0x00000004   Code   RO         4533    i.LOS_MemAllocAlign  los_memory.o
    0x0800107a   0x0800107a   0x00000026   Code   RO         4535    i.LOS_MemFree       los_memory.o
    0x080010a0   0x080010a0   0x000000dc   Code   RO         4537    i.LOS_MemInit       los_memory.o
    0x0800117c   0x0800117c   0x000000c4   Code   RO         4256    i.LOS_QueueCreate   los_queue.o
    0x08001240   0x08001240   0x00000022   Code   RO         4260    i.LOS_QueueReadCopy  los_queue.o
    0x08001262   0x08001262   0x00000026   Code   RO         4262    i.LOS_QueueWriteCopy  los_queue.o
    0x08001288   0x08001288   0x00000040   Code   RO         2784    i.LOS_Schedule      los_hw.o
    0x080012c8   0x080012c8   0x0000003c   Code   RO         5009    i.LOS_Start         los_init.o
    0x08001304   0x08001304   0x00000070   Code   RO         3753    i.LOS_TaskCreate    los_task.o
    0x08001374   0x08001374   0x00000150   Code   RO         3754    i.LOS_TaskCreateOnly  los_task.o
    0x080014c4   0x080014c4   0x0000006c   Code   RO         3755    i.LOS_TaskDelay     los_task.o
    0x08001530   0x08001530   0x00000138   Code   RO         3756    i.LOS_TaskDelete    los_task.o
    0x08001668   0x08001668   0x00000070   Code   RO         3769    i.LOS_TaskYield     los_task.o
    0x080016d8   0x080016d8   0x0000000c   Code   RO         3691    i.LOS_TickCountGet  los_sys.o
    0x080016e4   0x080016e4   0x00000088   Code   RO          203    i.MX_GPIO_Init      gpio.o
    0x0800176c   0x0800176c   0x00000038   Code   RO          229    i.MX_USART1_UART_Init  usart.o
    0x080017a4   0x080017a4   0x00000002   Code   RO          272    i.MemManage_Handler  stm32f1xx_it.o
    0x080017a6   0x080017a6   0x00000002   Code   RO          273    i.NMI_Handler       stm32f1xx_it.o
    0x080017a8   0x080017a8   0x00000002   Code   RO          274    i.SVC_Handler       stm32f1xx_it.o
    0x080017aa   0x080017aa   0x00000002   PAD
    0x080017ac   0x080017ac   0x00000024   Code   RO         2947    i.SysTick_Handler   los_hwi.o
    0x080017d0   0x080017d0   0x0000005e   Code   RO           17    i.SystemClock_Config  main.o
    0x0800182e   0x0800182e   0x00000002   Code   RO         2744    i.SystemInit        system_stm32f1xx.o
    0x08001830   0x08001830   0x0000000c   Code   RO          275    i.TIM4_IRQHandler   stm32f1xx_it.o
    0x0800183c   0x0800183c   0x0000006c   Code   RO          533    i.TIM_Base_SetConfig  stm32f1xx_hal_tim.o
    0x080018a8   0x080018a8   0x000000b8   Code   RO         1466    i.UART_SetConfig    stm32f1xx_hal_uart.o
    0x08001960   0x08001960   0x00000002   Code   RO          276    i.UsageFault_Handler  stm32f1xx_it.o
    0x08001962   0x08001962   0x00000002   PAD
    0x08001964   0x08001964   0x00000020   Code   RO         5275    i.__0printf$8       mc_w.l(printf8.o)
    0x08001984   0x08001984   0x00000020   Code   RO         2256    i.__NVIC_SetPriority  stm32f1xx_hal_cortex.o
    0x080019a4   0x080019a4   0x0000000e   Code   RO         5375    i.__scatterload_copy  mc_w.l(handlers.o)
    0x080019b2   0x080019b2   0x00000002   Code   RO         5376    i.__scatterload_null  mc_w.l(handlers.o)
    0x080019b4   0x080019b4   0x0000000e   Code   RO         5377    i.__scatterload_zeroinit  mc_w.l(handlers.o)
    0x080019c2   0x080019c2   0x00000002   PAD
    0x080019c4   0x080019c4   0x00000410   Code   RO         5282    i._printf_core      mc_w.l(printf8.o)
    0x08001dd4   0x08001dd4   0x00000024   Code   RO         5283    i._printf_post_padding  mc_w.l(printf8.o)
    0x08001df8   0x08001df8   0x0000002e   Code   RO         5284    i._printf_pre_padding  mc_w.l(printf8.o)
    0x08001e26   0x08001e26   0x00000012   Code   RO         5351    i.fputc             mc_w.l(fputc.o)
    0x08001e38   0x08001e38   0x00000048   Code   RO           18    i.main              main.o
    0x08001e80   0x08001e80   0x0000001a   Code   RO         4459    i.osAlarmHeapInfo   los_heap.o
    0x08001e9a   0x08001e9a   0x0000001e   Code   RO         4668    i.osAtomicBitsetClearBit  los_slab.o
    0x08001eb8   0x08001eb8   0x00000042   Code   RO         4670    i.osAtomicBitsetFindClearAndSet  los_slab.o
    0x08001efa   0x08001efa   0x00000022   Code   RO         4671    i.osAtomicBitsetGetBit  los_slab.o
    0x08001f1c   0x08001f1c   0x0000002c   Code   RO         4673    i.osAtomicBitsetInit  los_slab.o
    0x08001f48   0x08001f48   0x00000010   Code   RO         2980    i.osDelay           cmsis_liteos.o
    0x08001f58   0x08001f58   0x00000120   Code   RO         4460    i.osHeapAlloc       los_heap.o
    0x08002078   0x08002078   0x0000003a   Code   RO         4461    i.osHeapAllocAlign  los_heap.o
    0x080020b2   0x080020b2   0x00000002   PAD
    0x080020b4   0x080020b4   0x00000104   Code   RO         4462    i.osHeapFree        los_heap.o
    0x080021b8   0x080021b8   0x0000003a   Code   RO         4465    i.osHeapInit        los_heap.o
    0x080021f2   0x080021f2   0x00000016   Code   RO         4466    i.osHeapPrvGetNext  los_heap.o
    0x08002208   0x08002208   0x00000048   Code   RO         4467    i.osHeapStatisticsGet  los_heap.o
    0x08002250   0x08002250   0x00000002   Code   RO         3773    i.osIdleTask        los_task.o
    0x08002252   0x08002252   0x00000002   PAD
    0x08002254   0x08002254   0x00000040   Code   RO         3774    i.osIdleTaskCreate  los_task.o
    0x08002294   0x08002294   0x00000006   Code   RO         2948    i.osIntNumGet       los_hwi.o
    0x0800229a   0x0800229a   0x00000002   PAD
    0x0800229c   0x0800229c   0x00000030   Code   RO         2996    i.osKernelInitialize  cmsis_liteos.o
    0x080022cc   0x080022cc   0x00000030   Code   RO         2999    i.osKernelStart     cmsis_liteos.o
    0x080022fc   0x080022fc   0x00000014   Code   RO         4541    i.osMemSystemInit   los_memory.o
    0x08002310   0x08002310   0x00000058   Code   RO         4195    i.osMuxInit         los_mux.o
    0x08002368   0x08002368   0x00000038   Code   RO         3418    i.osPriqueueDequeue  los_priqueue.o
    0x080023a0   0x080023a0   0x00000030   Code   RO         3419    i.osPriqueueEnqueue  los_priqueue.o
    0x080023d0   0x080023d0   0x00000034   Code   RO         3420    i.osPriqueueInit    los_priqueue.o
    0x08002404   0x08002404   0x00000024   Code   RO         3421    i.osPriqueueSize    los_priqueue.o
    0x08002428   0x08002428   0x0000001c   Code   RO         3422    i.osPriqueueTop     los_priqueue.o
    0x08002444   0x08002444   0x000000d0   Code   RO         4265    i.osQueueBufferOperate  los_queue.o
    0x08002514   0x08002514   0x0000005c   Code   RO         4266    i.osQueueInit       los_queue.o
    0x08002570   0x08002570   0x00000168   Code   RO         4269    i.osQueueOperate    los_queue.o
    0x080026d8   0x080026d8   0x00000034   Code   RO         4270    i.osQueueReadParameterCheck  los_queue.o
    0x0800270c   0x0800270c   0x00000034   Code   RO         4271    i.osQueueWriteParameterCheck  los_queue.o
    0x08002740   0x08002740   0x00000004   Code   RO         2786    i.osSchedule        los_hw.o
    0x08002744   0x08002744   0x00000054   Code   RO         4392    i.osSemInit         los_sem.o
    0x08002798   0x08002798   0x0000001c   Code   RO         4674    i.osSlabAllocatorAlloc  los_slab.o
    0x080027b4   0x080027b4   0x00000038   Code   RO         4678    i.osSlabAllocatorFree  los_slab.o
    0x080027ec   0x080027ec   0x00000046   Code   RO         4685    i.osSlabAllocatorNew  los_slab.o
    0x08002832   0x08002832   0x00000014   Code   RO         4799    i.osSlabBlockHeadFill  los_slabmem.o
    0x08002846   0x08002846   0x00000004   Code   RO         4542    i.osSlabCtrlHdrGet  los_memory.o
    0x0800284a   0x0800284a   0x00000062   Code   RO         4801    i.osSlabMemAlloc    los_slabmem.o
    0x080028ac   0x080028ac   0x0000005e   Code   RO         4804    i.osSlabMemFree     los_slabmem.o
    0x0800290a   0x0800290a   0x00000002   PAD
    0x0800290c   0x0800290c   0x00000052   Code   RO         4805    i.osSlabMemInit     los_slabmem.o
    0x0800295e   0x0800295e   0x00000002   PAD
    0x08002960   0x08002960   0x00000080   Code   RO         3498    i.osSwTmrInit       los_swtmr.o
    0x080029e0   0x080029e0   0x00000188   Code   RO         3499    i.osSwTmrStart      los_swtmr.o
    0x08002b68   0x08002b68   0x0000003c   Code   RO         3500    i.osSwTmrTask       los_swtmr.o
    0x08002ba4   0x08002ba4   0x00000040   Code   RO         3501    i.osSwTmrTaskCreate  los_swtmr.o
    0x08002be4   0x08002be4   0x00000068   Code   RO         3502    i.osSwTmrTimeoutHandle  los_swtmr.o
    0x08002c4c   0x08002c4c   0x00000024   Code   RO         3504    i.osSwtmrDelete     los_swtmr.o
    0x08002c70   0x08002c70   0x0000001c   Code   RO         3505    i.osSwtmrScan       los_swtmr.o
    0x08002c8c   0x08002c8c   0x00000084   Code   RO         3775    i.osTaskAdd2TimerList  los_task.o
    0x08002d10   0x08002d10   0x0000002c   Code   RO         3776    i.osTaskEntry       los_task.o
    0x08002d3c   0x08002d3c   0x00000004   Code   RO         2787    i.osTaskExit        los_hw.o
    0x08002d40   0x08002d40   0x000000d4   Code   RO         3777    i.osTaskInit        los_task.o
    0x08002e14   0x08002e14   0x0000002c   Code   RO         3778    i.osTaskMonInit     los_task.o
    0x08002e40   0x08002e40   0x000000b4   Code   RO         3780    i.osTaskScan        los_task.o
    0x08002ef4   0x08002ef4   0x0000013c   Code   RO         3781    i.osTaskSwitchCheck  los_task.o
    0x08003030   0x08003030   0x0000004c   Code   RO         3782    i.osTaskWait        los_task.o
    0x0800307c   0x0800307c   0x00000040   Code   RO         3783    i.osTaskWake        los_task.o
    0x080030bc   0x080030bc   0x00000064   Code   RO         3028    i.osThreadNew       cmsis_liteos.o
    0x08003120   0x08003120   0x00000028   Code   RO         4032    i.osTickHandler     los_tick.o
    0x08003148   0x08003148   0x00000070   Code   RO         2897    i.osTickStart       los_hw_tick.o
    0x080031b8   0x080031b8   0x00000034   Code   RO         3784    i.osTimerListDelete  los_task.o
    0x080031ec   0x080031ec   0x00000038   Code   RO         4080    i.osTimesliceCheck  los_timeslice.o
    0x08003224   0x08003224   0x00000010   Code   RO         4081    i.osTimesliceInit   los_timeslice.o
    0x08003234   0x08003234   0x00000080   Code   RO         2788    i.osTskStackInit    los_hw.o
    0x080032b4   0x080032b4   0x00000048   Data   RO           20    .constdata          main.o
    0x080032fc   0x080032fc   0x00000010   Data   RO         2745    .constdata          system_stm32f1xx.o
    0x0800330c   0x0800330c   0x00000008   Data   RO         2746    .constdata          system_stm32f1xx.o
    0x08003314   0x08003314   0x00000015   Data   RO           21    .conststring        main.o
    0x08003329   0x08003329   0x00000003   PAD
    0x0800332c   0x0800332c   0x00000020   Data   RO         5373    Region$$Table       anon$$obj.o


    Execution Region RW_IRAM1 (Exec base: 0x20000000, Load base: 0x0800334c, Size: 0x00000710, Max: 0x00005000, ABSOLUTE)

    Exec Addr    Load Addr    Size         Type   Attr      Idx    E Section Name        Object

    0x20000000   0x0800334c   0x00000008   Data   RW           22    .data               main.o
    0x20000008   0x08003354   0x0000000c   Data   RW         1793    .data               stm32f1xx_hal.o
    0x20000014   0x08003360   0x00000004   Data   RW         2747    .data               system_stm32f1xx.o
    0x20000018   0x08003364   0x00000004   Data   RW         3041    .data               cmsis_liteos.o
    0x2000001c   0x08003368   0x00000008   Data   RW         3424    .data               los_priqueue.o
    0x20000024   0x08003370   0x0000001c   Data   RW         3509    .data               los_swtmr.o
    0x20000040   0x0800338c   0x00000048   Data   RW         3787    .data               los_task.o
    0x20000088   0x080033d4   0x00000004   Data   RW         4033    .data               los_tick.o
    0x2000008c   0x080033d8   0x00000004   PAD
    0x20000090   0x080033dc   0x00000010   Data   RW         4034    .data               los_tick.o
    0x200000a0   0x080033ec   0x00000004   Data   RW         4037    .data               los_tick.o
    0x200000a4   0x080033f0   0x00000008   Data   RW         4082    .data               los_timeslice.o
    0x200000ac   0x080033f8   0x0000000c   Data   RW         4196    .data               los_mux.o
    0x200000b8   0x08003404   0x0000000c   Data   RW         4272    .data               los_queue.o
    0x200000c4   0x08003410   0x0000000c   Data   RW         4393    .data               los_sem.o
    0x200000d0   0x0800341c   0x00000010   Data   RW         4468    .data               los_heap.o
    0x200000e0   0x0800342c   0x00000004   Data   RW         4543    .data               los_memory.o
    0x200000e4   0x08003430   0x00000004   Data   RW         5011    .data               los_init.o
    0x200000e8   0x08003434   0x00000004   Data   RW         5353    .data               mc_w.l(stdout.o)
    0x200000ec        -       0x00000044   Zero   RW          230    .bss                usart.o
    0x20000130        -       0x00000048   Zero   RW          366    .bss                stm32f1xx_hal_timebase_tim.o
    0x20000178        -       0x00000040   Zero   RW         3508    .bss                los_swtmr.o
    0x200001b8        -       0x00000156   Zero   RW         3785    .bss                los_task.o
    0x2000030e   0x08003438   0x00000002   PAD
    0x20000310        -       0x00000400   Zero   RW            1    STACK               startup_stm32f103xb.o


==============================================================================

Image component sizes


      Code (inc. data)   RO Data    RW Data    ZI Data      Debug   Object Name

       212         16          0          4          0       6238   cmsis_liteos.o
       136         14          0          0          0        855   gpio.o
       204         24          0          0          0        404   los_dispatch_keil.o
       784        100          0         16          0       6772   los_heap.o
       200         18          0          0          0      13130   los_hw.o
       112         26          0          0          0      29209   los_hw_tick.o
        42          8          0          0          0       4536   los_hwi.o
       300        138          0          4          0       1756   los_init.o
       326         70          0          4          0       5026   los_memory.o
        20          0          0          0          0        576   los_misc.o
       102         14          0         12          0       2512   los_mux.o
       220         30          0          8          0      12554   los_priqueue.o
      1046         94          0         12          0      16785   los_queue.o
        98         12          0         12          0       2592   los_sem.o
       328          0          0          0          0       5876   los_slab.o
       294          0          0          0          0       3867   los_slabmem.o
       812         70          0         28         64      23747   los_swtmr.o
        12          4          0          0          0        467   los_sys.o
      2206        290          0         72        342      24448   los_task.o
        40          6          0         24          0        964   los_tick.o
        72         16          0          8          0       1181   los_timeslice.o
       250         36         93          8          0     433116   main.o
        36          8        236          0       1024        784   startup_stm32f103xb.o
        64         14          0         12          0       4526   stm32f1xx_hal.o
       158         14          0          0          0      28098   stm32f1xx_hal_cortex.o
       506         34          0          0          0       3425   stm32f1xx_hal_gpio.o
        60          8          0          0          0        834   stm32f1xx_hal_msp.o
      1336        110          0          0          0       5681   stm32f1xx_hal_rcc.o
       654         26          0          0          0       6824   stm32f1xx_hal_tim.o
         4          0          0          0          0       1489   stm32f1xx_hal_tim_ex.o
       116         16          0          0         72       1363   stm32f1xx_hal_timebase_tim.o
       282          6          0          0          0       1816   stm32f1xx_hal_uart.o
        26          6          0          0          0       3289   stm32f1xx_it.o
         2          0         24          4          0       1059   system_stm32f1xx.o
       172         22          0          0         68       1598   usart.o

    ----------------------------------------------------------------------
     11252       1250        388        232       1572     657397   Object Totals
         0          0         32          0          0          0   (incl. Generated)
        20          0          3          4          2          0   (incl. Padding)

    ----------------------------------------------------------------------

      Code (inc. data)   RO Data    RW Data    ZI Data      Debug   Library Member Name

         0          0          0          0          0          0   entry.o
         0          0          0          0          0          0   entry10a.o
         0          0          0          0          0          0   entry11a.o
         8          4          0          0          0          0   entry2.o
         4          0          0          0          0          0   entry5.o
         0          0          0          0          0          0   entry7b.o
         0          0          0          0          0          0   entry8b.o
         8          4          0          0          0          0   entry9a.o
        18          0          0          0          0         80   fputc.o
        30          0          0          0          0          0   handlers.o
        36          8          0          0          0         68   init.o
         0          0          0          0          0          0   iusesemip.o
        30          0          0          0          0         68   llshl.o
        32          0          0          0          0         68   llushr.o
        36          0          0          0          0         68   memcpya.o
        36          0          0          0          0        108   memseta.o
      1154         54          0          0          0        352   printf8.o
         0          0          0          0          0          0   semi.o
         0          0          0          4          0          0   stdout.o
        98          0          0          0          0         92   uldiv.o

    ----------------------------------------------------------------------
      1492         70          0          4          0        904   Library Totals
         2          0          0          0          0          0   (incl. Padding)

    ----------------------------------------------------------------------

      Code (inc. data)   RO Data    RW Data    ZI Data      Debug   Library Name

      1490         70          0          4          0        904   mc_w.l

    ----------------------------------------------------------------------
      1492         70          0          4          0        904   Library Totals

    ----------------------------------------------------------------------

==============================================================================


      Code (inc. data)   RO Data    RW Data    ZI Data      Debug   

     12744       1320        388        236       1572     651277   Grand Totals
     12744       1320        388        236       1572     651277   ELF Image Totals
     12744       1320        388        236          0          0   ROM Totals

==============================================================================

    Total RO  Size (Code + RO Data)                13132 (  12.82kB)
    Total RW  Size (RW Data + ZI Data)              1808 (   1.77kB)
    Total ROM Size (Code + RO Data + RW Data)      13368 (  13.05kB)

==============================================================================

